:020000040800F2
:10000000B8990020850200089F670008D9490008B8
:100010009D6700080D1A0008058100080000000017
:10002000000000000000000000000000C501000802
:100030000121000800000000210200089578000856
:100040009F0200089F0200089F0200089F0200080C
:100050009F0200089F0200089F0200089F020008FC
:100060009F0200089F0200089F0200089F020008EC
:10007000611E00089F0200089F0200089F020008FE
:100080009F0200089F0200089F0200081D1A000836
:10009000111A00089F0200089F02000803210008AF
:1000A0009F0200089F0200089F0200089F020008AC
:1000B000597900089F0200089F0200089F0200086B
:1000C0009F0200089F0200089F0200089F0200088C
:1000D0009F020008B18000089F020008B580000858
:1000E0009F0200089F0200089F0200089F0200086C
:1000F0009F0200089F0200089F0200089F0200085C
:100100009F0200089F0200089F0200089F0200084B
:100110009F0200089F0200089F0200089F0200083B
:100120009F0200089F0200086D1E0008791E00084B
:10013000851E00089F0200089F0200089F02000819
:100140009F0200089F0200089F0200089F0200080B
:10015000911E00089F0200089F020008C18000084D
:100160009F0200089F0200089F0200089F020008EB
:100170009F0200089F0200089F0200080000000084
:100180009F0200089F020008257C00089F020008CB
:100190009F0200089F0200089F0200089F020008BB
:1001A00000000000000000009F020008DFF810D0EF
:1001B00001F084F90048004759A00008AFF300801F
:1001C000B89900202C4B19680868B0E8F04F80F30C
:1001D0000988BFF36F8F4FF0000080F311887047DC
:1001E0000000000008480068006880F308884FF0AD
:1001F000000080F3148862B661B6BFF34F8FBFF37F
:100200006F8F00DF00BF00BF08ED00E0DFF80C00DB
:10021000016841F470010160704700BF88ED00E0A3
:10022000EFF30980BFF36F8F134B1A681EF0100FA6
:1002300008BF20ED108A20E9F04F106009B44FF09C
:10024000500080F31188BFF34F8FBFF36F8F0BF017
:1002500093F94FF0000080F3118809BC1968086811
:10026000B0E8F04F1EF0100F08BFB0EC108A80F31A
:100270000988BFF36F8F704718000020EFF30580E7
:10028000704700000648804706480047FEE7FEE743
:10029000FEE7FEE7FEE7FEE7FEE7FEE7FEE7FEE736
:1002A00049790008AD0100089FED1A1AF5EE000A21
:1002B00040EE010ABDEEE00AF5EEC00A10EE100AAB
:1002C000F1EE10FA38BF401E00EE100A1349F7EEA7
:1002D000001AB8EEC00A30EEC00ADFED0F0A20EEB9
:1002E000200AFCEEC00A10EE900AC0F3080000EEEF
:1002F000900A01EB8000F8EE600A90ED011A70EEB2
:10030000600A90ED000A71EEE01A21EE800A00EE1C
:10031000810A704783F9223E0000004408DD00088E
:10032000B5EEC00AF1EE10FA07D2DFED1E0AB4EE08
:10033000E00AF1EE10FAA8BF7047DFED1B0AB5EE38
:10034000C00A60EE200ABDEEE01A11EE100AF1EECE
:1003500010FA38BF401E00EE100A1549F7EE001AD9
:10036000B8EEC00A30EEC00ADFED100A60EE200AD7
:10037000BCEEE00A10EE100AC0F3080000EE100A0E
:1003800001EB8000B8EE400A90ED011A70EEC00A51
:1003900090ED000A71EEE01A21EE800A00EE810A6B
:1003A00070470000CD024CB483F9223E00000044A7
:1003B00008DD000870B405880E884468D1F804C0D0
:1003C0005368B54208D140884988884201BF1188E6
:1003D0008D425188884203D070BC6FF00200704794
:1003E00005FB00F1880827D094ED001ADCED000A27
:1003F00094ED010ADCED011A31EE201AD4ED020A67
:1004000070EE211A9CED020A83ED001AC3ED011A69
:1004100094ED031ADCED031A30EE800A401E71EEF3
:10042000210A83ED020A04F11004C3ED030A03F16B
:1004300010030CF1100CD7D111F0030030D0B0F143
:10044000004F30D200282BDD211F1B1FACF104020E
:1004500010F0010F0AD091ED010AD2ED010A091D39
:10046000121D30EE200A83ED010A1B1D400817D033
:1004700091ED010AD2ED010A401E30EE200A83ED13
:10048000010A91ED020AD2ED020A01F1080102F11E
:10049000080230EE200A83ED020A03F10803E7D1D7
:1004A00070BC00207047B4EC010A401EFCEC010A4D
:1004B00030EE200AA3EC010AF5D1F1E70180428079
:1004C000436070472DE9F34F84B004984068009072
:1004D000486801900498B0F800E04588DFEDFE0A16
:1004E00000200290B0EE600AAE4506D10888498827
:1004F000884204BF7146864504D06FF0020006B002
:10050000BDE8F08F01985FEA010C18BFB7EE001A42
:100510003DD000BFBEEB0C0117D0B1F1004F80F011
:100520001F82002911DD021F11F0010F1CBFC2ED57
:10053000010A121D4B1006D0C2ED010AC2ED020ADB
:1005400008325B1EF8D100EB8100BCF10102A0EC87
:10055000011A19D0B2F1004F80F00882002A13DD91
:10056000031F12F0010F1CBFC3ED010A1B1D511028
:1005700008D000BFC3ED010AC3ED020A491E03F112
:100580000803F7D100EB8200BCF1010CC2D14FF09F
:1005900000080395002D14BFB0EE602A002000F083
:1005A000BF8100BF009908FB05F001EB800B0199AA
:1005B000DBED002A01EB80000346F0EE421AC6454F
:1005C00052D9AEEB0802ABEB850112F0010F17D048
:1005D00001EB850191ED000AB5EEC00AF1EE10FACB
:1005E00007DDB4EEE10AF1EE10FA09DDF0EE401A93
:1005F00006E0B1EE400AF4EEC01AF1EE10FAF5D3BF
:10060000521031D001EB850C9CED000AB5EEC00A0A
:10061000F1EE10FA05DDB4EEE10AF1EE10FA09DDB3
:1006200006E0B1EE400AF4EEC01AF1EE10FA01D283
:10063000F0EE401A01EBC50191ED000AB5EEC00ADB
:10064000F1EE10FA05DDB4EEE10AF1EE10FA09DD83
:1006500006E0B1EE400AF4EEC01AF1EE10FA01D253
:10066000F0EE401A521ECDD1F5EEC01AF1EE10FA9E
:1006700000F07381F5EEC02A0126F1EE10FA009920
:10068000D4BFB1EE620AB0EE620AB4EE610AF1EED6
:1006900010FA1CBFAEEB0802B2F1010C47D005FB0B
:1006A00008F201EB820292ED001A00BFB0EE410A9F
:1006B00005FB06F4B5EEC00A00EB8404F1EE10FA77
:1006C000CCBFF0EE400AF1EE400AF4EE610AF1EE22
:1006D00010FA28D1B5EB080C11D0BCF1004F7DD237
:1006E000BCF1000F0BDD00BF92ED000AD1ED000A56
:1006F000BCF1010CE2EC010AA1EC010AF4D12900E1
:100700000ED0B1F1004F6AD2002909DD94ED000A44
:10071000D0ED000A491EE4EC010AA0EC010AF5D173
:10072000012002900BE0761CBCF1010CBED10298B6
:10073000012804D0F5EEC02AF1EE10FA7ED09BED30
:10074000000AB5EB08009A465946064622D0B0F199
:10075000004F74D200281DDD091F10F0010F06D0D4
:10076000F0EE400A80EEA01A81ED011A091D40103A
:1007700010D000BFD1ED010A401E80EE801A81ED3D
:10078000011A91ED021AC1EE000AC1ED020A01F14F
:100790000801EFD1280026D0B0F1004F7ED200280A
:1007A00021DDAAF1040110F0010F06D0D1ED010AFC
:1007B00080EE801A81ED011A091D401013D000BF90
:1007C000D1ED010A401E80EE801A81ED011AD1EDB3
:1007D000020A80EE801A81ED021A01E0CBE0D6E039
:1007E00001F10801ECD1DDE900124FF000095FEAE8
:1007F0000E0773D0C14504BF01EB860102EB8502F1
:1008000074D091ED000ADC465046331E35D01C46AC
:10081000B6F1004F7ED2002C2FDD0B1FABF1040C84
:1008200016F0010F0FD0F0EE400ADCED011AB0EE29
:10083000601A00EEE11A83ED011A01E08DE0B1E0EB
:100840001B1D0CF1040C741015D000BFD3ED010A70
:100850009CED011A40EE410AC3ED010AD3ED020AF4
:100860009CED021A0CF1080C40EE410AC3ED020A9D
:100870000833641EEAD101EB86012B0036D0B3F1B8
:10088000004F72D2002B31DDA2F1040CAAF104005A
:1008900013F0010F0CD0DCED010A00E08BE090EDCD
:1008A000011A001D40EE410ACCED010A0CF1040CC6
:1008B0005C1019D0DCED010A90ED011A40EE410AFE
:1008C000CCED010ADCED020A90ED021A083040EE90
:1008D000410ACCED020A03E0000000000DE005E053
:1008E000641E0CF1080CE5D102EB830201EB8801D8
:1008F0007F1E09F101097FF47DAF009808F101081E
:10090000001D00900398401E03907FF44BAE0299A7
:10091000012900E058E004BF06B0BDE8F08F00BF39
:10092000B5EEC00AF1EE10FA7FF4E9AD04990EFBC2
:1009300005F3002B4A684FF000010BD902EB810C44
:100940009CED000AB5EEC00AF1EE10FA02D1491C86
:100950008B42F3D88B427FF4D2AD6FF00400CEE52A
:10096000E0EC010A491EFBD1EFE538E0E0EC010ABA
:10097000521EFBD108E692ED000AD1ED000ABCF14F
:10098000010CE2EC010AA1EC010AF4D1B7E694ED06
:10099000000AD0ED000A491EE4EC010AA0EC010AAD
:1009A000F5D1BDE6D1ED000A401E80EE801AA1EC23
:1009B000011AF7D1EEE6D3ED000A401E80EE801A50
:1009C000A3EC011AF7D10EE7BCEC011AD1ED000A35
:1009D0005B1E40EE410AE1EC010AF5D14DE7B0ECB7
:1009E000011AD2ED000A5B1E40EE410AE2EC010A58
:1009F000F5D17BE72DE9F04F82B04668536801934B
:100A0000058847884B88002000900888874201BFEE
:100A1000B2F800C06545528893421EBF6FF00200D5
:100A200002B0BDE8F08F9FED412A4FEA970EC7F361
:100A3000400B00BFDDE9000202EB800A4A689846DD
:100A40004FF00009B0EE420AB4465FEA0E0025D02E
:100A500092ED001ADCED001A02EB8302DCED010AD4
:100A600001EE810A92ED001A02EB8302401ED2EDE4
:100A7000001A02EB830200EE810A9CED021ADCED03
:100A8000030A00040CF1100C000C01EE210A92ED97
:100A9000001A02EB830200EE810AD9D117F003009D
:100AA00026D0ACF10404A2EB830210F0010F08D0B1
:100AB00002EB8302D4ED010A92ED001A241D00EE30
:100AC000810A5FEA0B0013D002EB830CD4ED010A1C
:100AD0009CED001A02EBC302401E00EE810AD4ED29
:100AE000020A92ED001A04F1080400EE810AEBD12B
:100AF00009F10100AAEC010A1FFA80F9486800EB2D
:100B00008902A8F101001FFA80F8B8F1000F99D10D
:100B1000009806EB8706184480B20090681E050412
:100B20002D0C87D102B00020BDE8F08F000000003E
:100B300070B405880E884468D1F804C05368B54283
:100B400008D140884988884201BF11888D42518868
:100B5000884203D070BC6FF00200704705FB00F1C3
:100B6000880827D094ED001ADCED000A94ED010A04
:100B7000DCED011A31EE601AD4ED020A70EE611A52
:100B80009CED020A83ED001AC3ED011A94ED031ADD
:100B9000DCED031A30EEC00A401E71EE610A83EDEF
:100BA000020A04F11004C3ED030A03F110030CF16F
:100BB000100CD7D111F0030030D0B0F1004F30D27B
:100BC00000282BDD211F1B1FACF1040210F0010FC8
:100BD0000AD091ED010AD2ED010A091D121D30EE75
:100BE000600A83ED010A1B1D400817D091ED010A30
:100BF000D2ED010A401E30EE600A83ED010A91ED4C
:100C0000020AD2ED020A01F1080102F1080230EEF7
:100C1000600A83ED020A03F10803E7D170BC0020EB
:100C20007047B4EC010A401EFCEC010A30EE600A89
:100C3000A3EC010AF5D1F1E72DE9F04F02884768EE
:100C4000B0F802804888D1F8049082B04FF0000AD2
:100C50001646824207BF098888456FF0020002B03D
:100C600018BFBDE8F08F4FEA980B02EB42000190ED
:100C7000C8F34000CDF8000009EB8A01BBF1000F7A
:100C800033D0019801EB820C01EB80043B46E64631
:100C900001EBC2054FEA0B0093ED000A401E81ED07
:100CA000000A93ED010A01EB02118CED000A93EDAD
:100CB000020A0CEB021C85ED000A93ED030A05EB1A
:100CC000021584ED000A04EB021403F11003E3D1D2
:100CD0000EEB820000EB820000EB8201ABF1010021
:100CE000504307EB0B1701EB001118F0030C21D058
:100CF0003B1FA1EB82011CF0010F06D093ED010A0E
:100D000001EB82011B1D81ED000A009880B100BF3C
:100D100093ED010A01EB820401EBC20184ED000AAC
:100D200093ED020A401E81ED000A03F10803EFD1A2
:100D300007EB8C070AF101001FFA80FA701E060407
:100D4000360C99D102B00020BDE8F08F2DE9F05F9C
:100D50000546002092469B4688460646814640242A
:100D60001BE0284641464746224600F057FA5346C4
:100D70005A46C01A914110D311461846224600F037
:100D80003EFA2D1A67EB01084F462246012000214A
:100D900000F035FA17EB00094E41201EA4F10104C2
:100DA000DFDC484631462A464346BDE8F09F40EA2C
:100DB00001039B0703D009E008C9121F08C0042AD9
:100DC000FAD203E011F8013B00F8013B521EF9D2C0
:100DD0007047D2B201E000F8012B491EFBD27047E8
:100DE0000022F6E710B513460A4604461946FFF7F7
:100DF000F0FF204610BD2DE9FE4F804681EA03003A
:100E0000C00F0C46009021F0004123F00045B8EBE4
:100E10000200A94105D24046214690461C460B4699
:100E2000024623F00040104347D0270DC7F30A00C5
:100E3000C3F30A510290401A019040286BDAC3F3C1
:100E4000130040F4801B0098924620B10023D2EB9F
:100E5000030A63EB0B0B01985946C0F14002504660
:100E600000F0CDF906460D4650465946019A00F06D
:100E7000E5F910EB08006141002487EA115284EA89
:100E8000E7731A4340D0009A62B3019A012A4FEAED
:100E9000075215DC001B61EB02014FF0004202EA31
:100EA0000752CDE90042001C41F5801132462B4625
:100EB00000F06AFA03B0BDE8F08F40462146F9E73A
:100EC000001B61EB0201001C41F5801300185B411F
:100ED0002018A2F5001747EB030140EAD570B619B8
:100EE0006D4111E06D084FEA360645EAC0754FEADC
:100EF0000752001B61EB0201001C41F580114908FB
:100F00004FEA30000019514132462B4603B0BDE88C
:100F1000F04F00F02ABA0098012240000023D0EBE5
:100F2000020263EBE073009821464FEAE074B8EBED
:100F3000000061EB0401E9E783F000435BE781F027
:100F4000004158E72DE9FE4F81EA030404F0004414
:100F500021F0004100944FF0000B23F0004350EAD1
:100F600001045ED052EA03045BD0C3F30A54C1F318
:100F70000A552C44A4F2F3340194A0FB0254C1F3AB
:100F8000130141F48011C3F3130343F4801301FBF5
:100F9000024400FB034E840A970A44EA815447EA5C
:100FA0008357A4FB076802958D0A05FB07854FEA66
:100FB000932C04FB0C542705029D4FEA065847EA80
:100FC0001637B5EB08056EEB070C870E920E47EA55
:100FD000811742EA8312A7FB0201B6EB0B0164EB17
:100FE00000042B0D43EA0C335E1844EB1C50DA4628
:100FF0005146E7FB0201C5F313044FEA0B3343EA02
:1010000014534FEA0432019C43EA0603A4F10C0492
:101010000294009CCDE900B400F0B6F903B0BDE83D
:10102000F08F00200146F9E72DE9F04D81EA030435
:1010300004F0004B21F0004514464FF0000A23F065
:10104000004150EA050220D054EA01021DD0C5F348
:101050000A570246C5F31303C1F31300C1F30A563E
:1010600040F4801543F48013A7EB0608101BD64606
:1010700008F2FD3873EB050002D308F1010801E026
:1010800092185B41B8F1000F03DA00200146BDE879
:10109000F08D00204FF48011064684460EE0171BA9
:1010A00073EB050705D3121B63EB050306434CEAFC
:1010B000010C49084FEA300092185B4150EA0107E1
:1010C000EDD152EA030012D082EA040083EA05015E
:1010D000084305D0101BAB4106D20122002306E0D5
:1010E00000224FF0004302E06FF0010253101AEBB0
:1010F00006004CEB085110EB0A0041EB0B01BDE878
:10110000F04D00F032B9F0B4CA17CB0F5040514047
:10111000C61841F100054FEAC372314628004FF06E
:10112000960303D0B623F0BC00F0F1B8304600219E
:10113000F9E710B500F0004420F00040C20DC0F304
:10114000160040F400007F2A02DA0020014610BD9C
:101150000021962A03DCC2F19602D04002E0963AC2
:1011600000F04DF8002CF2D00023D0EB030063EB2D
:10117000010110BD00F0004230F000400AD0C10D66
:1011800001F56071C0F3160042EA0151C208400740
:101190001143704700200146704701F0004330B40E
:1011A00021F0004150EA010206D00A0DA2F560725A
:1011B000C1F31301002A02DC30BC00207047440F49
:1011C00044EAC104C100E01830BC00EBC25000F09A
:1011D00095B830B50B46014600202022012409E0D5
:1011E00021FA02F59D4205D303FA02F5491B04FAE0
:1011F00002F52844151EA2F10102F1DC30BD202ABF
:1012000004DB203A00FA02F1002070479140C2F15D
:10121000200320FA03F3194390407047202A04DB8F
:10122000203A21FA02F00021704721FA02F3D0405F
:10123000C2F120029140084319467047202A06DB7C
:10124000CB17203A41FA02F043EAE07306E041FA94
:1012500002F3D040C2F12002914008431946704782
:101260000FB4002300B589B00CA900910B996FF061
:101270000042CB601E4B06931E4B07930423CDE91F
:1012800001321D4A089202466B46002000F0C2F966
:1012900009B05DF814FB70B586B006464FF0FF301C
:1012A0000091CDE90101002015460C46049032461C
:1012B000694604A8FFF7D4FF02460498211825B117
:1012C00008B1084600E020462860049800280DD0A8
:1012D000002A02DD0098884208D0081B0094CDE95E
:1012E00001043246694604A8FFF7BAFF06B070BD94
:1012F0004D1800086B180008E11400080029A8BF69
:101300007047401C490008BF20F00100704710B42E
:10131000B0FA80FC00FA0CF050EA010404BF10BCE3
:10132000704749B1CCF1200421FA04F411FA0CF110
:1013300018BF012121430843A3EB0C01CB1D4FEA49
:1013400000614FEA102042BF002010BC704700EB44
:10135000C35010440029A4BF10BC7047401C490072
:1013600008BF20F0010010BC704710B5141E73F1C7
:10137000000408DA401C41F1000192185B411A4355
:1013800001D120F0010010BD2DE9F04D92469B46A1
:1013900011B1B1FA81F202E0B0FA80F22032904647
:1013A000FFF72DFF04460F4640EA0A0041EA0B0111
:1013B00053465A46084313D0114653EA010019D048
:1013C000C8F140025046FFF729FF05460E46504639
:1013D00059464246FFF713FF084305D0012004E0B9
:1013E00020463946BDE8F08D0020054346EAE07608
:1013F0002C4337430A986305E40AA0EB0800002257
:10140000FD0A44EA47540A3002D500200146E9E7C4
:10141000010510196941DDE9084500196941BDE878
:10142000F04DA2E7C1F30A52C1F3130140F2FF33BA
:1014300041F480119A4202DA00200146704740F2DE
:1014400033439A42A2F2334202DC5242FFF7E6BE35
:10145000FFF7D5BE30B5041E71F1000404DB4FF078
:101460000044404264EB0101141E73F1000405DBEB
:101470001C464FF00043524263EB0403994208BFFD
:10148000904230BD002801DBC0F10040002901DBA3
:10149000C1F10041814202D24FF0004004E04FF020
:1014A000005001D14FF0C0404FEA2062EFF30081BD
:1014B00062F31F6181F3008870470000064C074DFE
:1014C00006E0E06840F0010394E807009847103414
:1014D000AC42F6D3FEF76EFECCE50008ECE5000862
:1014E000C0B24FF4F05100F0D1B900002DE9FF4F28
:1014F000087883B09946FF2805D0491C2D2804D0D0
:101500000024002008E000200BE00124F9E700EBB4
:10151000800003EB4000491C0B78FF2BF7D104B18E
:10152000404200230293147819461D462D2C01D009
:101530002B2C04D1521C2D2C13D000240294AA462B
:101540001478FF2C0FD00A25A3FB057801FB058139
:101550004FF0000C03FB0C11521CE3194AEB010184
:10156000EEE70124EAE7814453EA010002D019F5CD
:10157000C87F06DA03980021C0E9001107B0BDE872
:10158000F08F0025AE4E2F46DFF8B882184600F0E7
:1015900091F9CDE90001B9F1000002DAC9F10004C6
:1015A00000E004460023A74A1AEB030B42EB045A5F
:1015B00012E0E00707D02A46334638464146FFF797
:1015C000C1FC074688462A46334610461946FFF7AF
:1015D000B9FC05460E466410002CEAD1DDE9000195
:1015E000B9F1000F5A46534606DAFFF71DFD3A4699
:1015F0004346FFF719FD05E0FFF7A4FC3A464346D2
:10160000FFF7A0FC029A0AB181F00041039AC2E9F7
:101610000001B3E72DE9FF4F1F468DB0D7E9014622
:101620004FF0FF382E2045464FF000090B90B96966
:101630006D1C0E988847396A824688470028F6D183
:10164000BAF1FF3F0AD024F4D064002E11DDBAF1C4
:101650002B0F08D0BAF12D0F0BD102E0404611B08C
:101660008DE744F48064B9696D1C0E988847824602
:10167000761E6946600501D52D2000E02B208DF8EF
:10168000000001F1010B0DF1200809E0B9696D1CA2
:101690000E98884782460F9844F40074761E0560C1
:1016A000002E02DDBAF1300FF0D00B998A453ED101
:1016B00044F0800406E00F99681CA9F1010944F484
:1016C00000740860B9696D1C761E0E9888478246C2
:1016D0003028F0D02BE00B998A4505D1200603D4A1
:1016E00044F08004761E18E0504607F063F908B312
:1016F0000DF11301761E44F400748B4508D2AAF153
:1017000030000BF8010B200607D5A9F1010003E01A
:10171000200602D409F101008146A00502D50F99E7
:10172000681C0860B9696D1C0E9888478246002EB7
:10173000D1DC53E0002E51DDBAF1650F02D0BAF1D1
:10174000450F4BD1A00549D5B9696D1C24F44074EF
:10175000761E0E9888478246002E0CDD2B2804D07A
:10176000BAF12D0F07D144F48074B9696D1C0E983D
:1017700088478246761EE00501D52D2100E02B2109
:1017800008F8011BCDF82C8021E00DF12901761E0F
:1017900044F4007488450CD2AAF1300010F0FF0028
:1017A00088F8000002D10B99884509D908F1010891
:1017B00006E0E00501D5244801E042F20F708146C1
:1017C000B9696D1C0E98884782460F980560002EF7
:1017D00004DD504607F0EEF80028D6D1F9690E98DE
:1017E0008847FF208BF8000088F800000020069052
:1017F00007904B466A4608A906A8FFF777FEA005A2
:1018000002D46FF001002AE714F0240F0AD0E00799
:1018100014D1DDE906123868031D3B600068C0E999
:1018200000120BE0DDE90601FFF7B7FC0146E00717
:1018300004D13868021D3A600068016028460EE74E
:10184000000014400000F03FF1D8FFFF426842B1B1
:10185000016811F8013B23B1521EC0E9001218467D
:1018600070470121C160881E704742685AB1C36841
:10187000016843B983688B4205D0491E521CC0E9F8
:101880000012002070474FF0FF3070477F2801D9C9
:10189000002208E0064A02EB5002C007127800D18D
:1018A000120902F00F02012090400840704700002A
:1018B0000CE500080EB540F2334202920022CDE959
:1018C00000221346FFF760FD03B000BD70B58C1811
:1018D00010F8015B15F0070301D110F8013B2A1144
:1018E00006D110F8012B03E010F8016B01F8016B31
:1018F0005B1EF9D12B0705D40023521E0DD401F82D
:10190000013BFAE710F8013BCB1A921C03E013F8F5
:10191000015B01F8015B521EF9D5A142D8D300202A
:1019200070BDB6EE000AD2ED020AF0EE401A92ED5A
:10193000031A40EEE01A90ED002AD2ED012AD0ED14
:10194000013A22EEA03A41EE411A21EE822AD2ED6E
:10195000001A01EEC13A22EE811A01EEA01A03EE3E
:10196000232AD0ED020AF0EE001A01EE202A62EEE0
:10197000210AC1ED000A92ED011AD2ED023A92ED70
:10198000002AD2ED030A61EE232A90ED003A90ED91
:10199000014A42EE202A62EE832AB0EE403A01EE7E
:1019A000413A00EEE03A63EEA00A42EE410A43EE0D
:1019B000042A90ED021A40EE812A62EEA10AC1EDDE
:1019C000010A92ED011AD2ED032AD2ED020A92ED3C
:1019D000003A21EE222A60EEA22AD0ED003A01EE72
:1019E000410A03EE602A43EE012A90ED013A00EE2F
:1019F000E00A22EE232AD0ED020A02EE832A00EE4C
:101A0000202A22EE210A81ED020A7047FEE700003B
:101A1000014800F090BD0000E81D0020014800F0E2
:101A20008ABD0000E81D002000B500680B498BB09E
:101A3000884210D100200121019002900891059068
:101A4000CDE906010490009003900E2009906946AC
:101A5000034800F075FC0BB000BD000000640040BE
:101A6000E81D002030B589B0DDE90C540291002159
:101A70000491059108210691110A8DF800108DF846
:101A80000120190A8DF80210290A8DF804108DF82A
:101A90000550210A8DF806108DF803308DF80740A7
:101AA00001236A4602A900F0DDFB09B030BD10B584
:101AB000044600F0A3FF0221204600F0C1FB2046AF
:101AC000BDE81040FFF7B0BF2DE9F04F04462DED03
:101AD000028B8BB000F084FAD14DD34EDFF844B3C3
:101AE00085ED050A0DF118080DF1080906F1100A37
:101AF00000F076FAD5ED050A30EE600A10EE101A05
:101B0000594512DD9FEDC90A84ED090A9FEDC80A07
:101B100084ED0A0A84ED0B0A9FEDC60A84ED0C0AD7
:101B20009FEDC50A84ED060A53E19FEDC40A00F05B
:101B30001BFA9FEDC30A002784ED0C0A84ED090A05
:101B400084ED0A0A84ED0B0ACEE00E22B6493B2052
:101B500008F012FC3088D5ED030A40BA00B200EE5E
:101B6000100AB8EEC00A20EE201A84ED001A708820
:101B7000D5ED030A40BA00B200EE100AB8EEC00A72
:101B800060EE201AC4ED011AB08840BA00B200EE2F
:101B9000100AB8EEC00A60EE200A21EE010AC4ED78
:101BA000020A01EEA10A00EEA00A06F0F1FDD4ED52
:101BB0000C0A002F70EE800AC4ED0C0A308995EDF6
:101BC000041A40BA00B200EE900AF8EEE00A60EEA5
:101BD000810AC4ED030AD4ED091A71EEA00AC4ED1E
:101BE000090A708940BA00B200EE900AF8EEE00AE5
:101BF00060EE810AC4ED040AD4ED0A1A71EEA00A5F
:101C0000C4ED0A0AB08940BA00B200EE900AF8EEBC
:101C1000E00A60EE810AC4ED050A94ED0B1A71EE3C
:101C2000200AC4ED0B0A7CD0B4EEE80AF1EE10FAFB
:101C300001DDF0EE408AB4EEC80AF1EE10FA01D2EE
:101C4000B0EE408A002042464FEA090104EB8003CF
:101C500093ED030A02EB8003D3ED000AB4EEE00A31
:101C6000F1EE10FA01DD83ED000A01EB8003D3ED04
:101C7000000AB4EEE00AF1EE10FA01D283ED000A98
:101C8000401CC0B20328E1D338EEC80A0020434606
:101C900085ED060A4A46514603EB800C9CED001A7E
:101CA00002EB800CDCED000A01EB800C401C71EEB5
:101CB000600AC0B20328CCED000AEDD310EE100A82
:101CC000B0F17C5F14DC5F480A68824210DC4A682D
:101CD00082420DDCDAF80810814209DC9FED5A0AD5
:101CE00000F042F97F1CBFB228898742FFF42DAF74
:101CF0002989D4ED0C0A00EE101A2F465FF000007F
:101D0000B8EE400A80EE801A84ED0C1A00EE101A2C
:101D100004EB8002B8EE400AD2ED090A80EE801A88
:101D200000E063E0401CC0B282ED091A0328EDD345
:101D30000E223D493B2008F01FFBF08840BA00B25C
:101D400000EE100AF8EEC00A9FED401A80EE810AFC
:101D5000F3EE050A30EE200A84ED060AB888401C2E
:101D6000B880B9694FF07E5081423FF7C1AE94ED23
:101D70000C0ADFED370A30EE600AB0EEC00A10EE52
:101D8000101A8142F1DC3349DAF8002050468A42C9
:101D9000EBDC42688A42E8DCDAF808008842E4DCDE
:101DA00094ED090A2C48B0EEC00A10EE101A8142D8
:101DB000DBDC94ED0A0AB0EEC00A10EE101A814284
:101DC000D3DC94ED0B0AB0EEC00A10EE101A81427B
:101DD000CBDC94ED0C0ADFED210A80EE801A84ED55
:101DE000081A0BB0BDEC028BBDE8F08FF0EE408A14
:101DF000B0EE408A002041464FEA090204EB80031E
:101E000093ED030A01EB800383ED000A02EB8003EC
:101E1000401CC0B283ED000A0328EFD334E7000072
:101E2000DC1400200000204130890020AC38223B27
:101E3000B016CE393F161B41000020426F12033A04
:101E4000000000009A99193E0AD7A33B5CEFA64315
:101E5000CDCC1C41CDCC4C3DCDCCCC3DC3F51C41B3
:101E6000014800F059BE000038210020014800F070
:101E700053BE000098210020014800F04DBE000034
:101E8000201F0020014800F047BE0000801F0020F6
:101E9000014800F041BE0000C01E00200168182368
:101EA000CAB2103AB2FBF3F2054B6FF30901032AF1
:101EB0009B5CC36500D9091D816508467047000019
:101EC00004C0000810B5014600208B698A6A4FF0F3
:101ED000C07453B1B3F5005F15D072B1012A0CD0B4
:101EE000022A0AD0032A09D104E01AB1012A06D035
:101EF000022A03D1C96AC90100D5012010BDC96AEF
:101F0000A142FAD010BD002AF7D0012AF2D0022A4D
:101F1000F3D0032AF3D010BD30B50468256825F44A
:101F200080252560046863608368402B036803D0C4
:101F300099600068C26030BD9A600068C16030BDC1
:101F4000074808B54068009001460648026991427A
:101F500002D2C168491CC1600099016108BD00003E
:101F6000001000E0101500200A4948680A4AD2ED26
:101F7000000A4A68121AF8EE601A01EE102AB8EE4A
:101F8000411A60EE211AB4EEE11AF1EE10FAF0D324
:101F900070470000001000E01015002000B50E4949
:101FA0002DED028B81B0496800910168009A511AA9
:101FB00000EE101A0949F8EE400A91ED000A02609D
:101FC000B8EE400A80EE808AFFF7BAFF01B0B0EEAB
:101FD000480ABDEC028B00BD001000E01015002087
:101FE00010B500F043F80C489FED0C1A818890ED75
:101FF000000A00EE901AC088B8EE400AF8EE600AB7
:1020000000EE810A00EE900A9FED051AF8EE600AD4
:1020100000EE810A10BD0000401500206F12833AC7
:10202000BD3786350D490A6842F080720A600C4956
:1020300000224A600B6843F001030B6009494FF42A
:102040007A734843B0FBF3F30749C1E90003054B3A
:10205000B0FBF3F0C1E9020270470000FCED00E0C4
:10206000001000E040420F00101500202DE9F84359
:10207000214840680090FFF763FF204F0024009E36
:10208000F8684FF0FF312546E0FB0165C7E90E65B2
:10209000D7F800802346424630462946FEF756FED2
:1020A000A0FB083CC7E9060101FB08C100FB0411C5
:1020B000F61A65EB0105C7E9086507F1300800234A
:1020C000C8F80000D7F8049030464A462946FEF783
:1020D0003DFE80B2A8F8040000FB09F0301A65EB61
:1020E0000405C7E90A0529460023BA68FEF72EFE53
:1020F000A8F80600BDE8F883001000E010150020E5
:1021000070474FF4807000F08DBEB6EE000AD2ED3D
:10211000020AF0EE401A92ED031A40EEE01A90ED3A
:10212000002AD2ED012AD0ED013A22EEA03A41EE8A
:10213000411A21EE822AD2ED001A01EE813A22EEF6
:10214000811A01EEE01A03EE232AD0ED020AF0EE26
:10215000001A01EE202A62EE210AC1ED000A92ED7A
:10216000011AD2ED023A92ED002AD2ED030A61EE95
:10217000232A90ED003A90ED014A42EE602A62EE89
:10218000832AB0EE403A01EE413A00EEE03A63EEC7
:10219000A00A42EE010A43EE042A90ED021A40EE34
:1021A000812A62EEA10AC1ED010A92ED011AD2ED77
:1021B000032AD2ED020A92ED003A21EE222A60EEC5
:1021C000A22AD0ED003A01EE410A03EE202A43EEA6
:1021D000412A90ED013A00EEE00A22EE232AD0EDEA
:1021E000020A02EE832A00EE202A22EE210A81ED65
:1021F000020A70477047000010B558B1084C491EDC
:102200000BD310F8013B5340DBB234F8133083EAB0
:102210001222F4E74FF6FF7010BD104610BD00000B
:1022200078DA000810B5054C04E000BF10F8013B57
:102230005340E25C491EF9D2104610BD78D900081F
:1022400090F82020012A07D0022A05D0416A41F4E3
:102250008021416201207047006842690A4342615F
:1022600000207047F0B590F820500468A468012D54
:1022700005D0022D03D0416A41F480215DE014F0C5
:10228000406F01D1E50055D5C4F30164022C03D998
:10229000416A41F4000150E00125A5401D608D68B0
:1022A0004FF4C0739DB1CE6835434E6845EAC6050C
:1022B000066803EB0417F5514FF4C275076805EB88
:1022C00004150E697E51097D012905D009E00E88AB
:1022D000CD6845EA4655EBE701684E5946F48076ED
:1022E0004E511179D579567941EA056195792D04D8
:1022F00045EA062529434FF4C676056806EB041621
:10230000A9511178D57841EA0561957852782D0464
:1023100045EA022211434FF4C475026805EB041527
:102320005151006803EB0411425842F0010242503F
:102330000020F0BD416A41F4001141620120F0BD6E
:1023400010B590F82020012A07D0022A05D0416A52
:1023500041F480214162012010BD3B48D0F80022A9
:1023600042F00102C0F80022D0F8002222F47C5290
:10237000C0F80022D0F800224B6A42EA0322C0F8DB
:1023800000220A7D02F01F0301229A40D0F81C327D
:102390009343C0F81C32CB69B3B9D0F80C329343E5
:1023A000C0F80C328C894B6864F31F434C6900EB16
:1023B000C404C4F840320C890B6864F31F434C69B1
:1023C00000EBC404C4F84432CB69012B16D1D0F819
:1023D0000C321343C0F80C320C884B6864F31F4373
:1023E0004C6900EBC404C4F840320C89CB6864F338
:1023F0001F434C6900EBC404C4F844328B69002BC2
:10240000D0F804320ED01343C0F804320B69002B0D
:10241000D0F8143208D01343C0F81432096A0129E5
:1024200004D008E09343EFE79343F5E7D0F81C129C
:102430001143C0F81C12D0F8001221F00101C0F8BD
:102440000012002010BD000000640040704730B54D
:1024500090F82040012C05D0022C03D0416A41F4B1
:1024600080215DE00468002955D02469A40754D078
:102470004FF4D874056804EB01142D5915F00405C8
:10248000956005682D594ED0ED08556005682C59AA
:1024900004F00204D4604FF4DA74056804EB01140C
:1024A0002D5905F00F05156105682D59C5F3072550
:1024B000956105682C59240C54614FF4DC72046852
:1024C00002EB0112A4581C700468A458240A5C7022
:1024D0000468A458240C9C700468A258120EDA7088
:1024E0004FF4DE72046802EB0112A4581C710468F8
:1024F000A458240A5C710468A458240C9C710468D4
:10250000A258120EDA71006881B1016941F0200110
:102510000161002030BDE468A8E7416A41F4001180
:102520004162012030BD6D0D1560AFE7C16841F01B
:102530002001C160EDE72DE9F05F05460068002449
:102540004669D0F804908768D0F80CB0D0F810A095
:10255000D0F81880F10748D0F90714D00121816024
:10256000B80703D5284600F076FA0CE0780702D5C4
:102570004FF4006407E0380702D54FF4805402E0BE
:10258000284600F067FAF80516D529684FF48070E0
:102590008860B80503D5284600F05FFA0CE078059E
:1025A00002D544F4005407E0380502D544F48044D1
:1025B00002E0284600F050FAF80316D529684FF4D7
:1025C00080308860B80303D5284600F048FA0CE054
:1025D000780302D544F4004407E0380302D544F4FC
:1025E000803402E0284600F039FA300707D55FEA68
:1025F000CB6004D52968102044F40074C8607007CB
:102600004FF0080707D55FEA0B7004D52868C7604C
:10261000284600F05FF9B00706D52868C068800733
:1026200002D0284600F058F9700607D55FEACA6064
:1026300004D52968102044F480640861B00607D5E9
:102640005FEA0A7004D528680761284600F0D2F9CD
:10265000F00606D528680069800702D0284600F0F9
:10266000CAF9B00308D55FEAC96005D5296810200A
:102670004860284600F0C0F9F00307D55FEA09700A
:1026800004D528684760284600F0EAF9300446D5AA
:102690005FEA497040D5F00504D55FEAC87001D003
:1026A00044F00104B00504D55FEA887001D544F018
:1026B0000204700504D55FEA487001D544F00404B3
:1026C000300529D518F0700F26D008F0700040288A
:1026D00015D006DC102809D020280AD0302816D1C1
:1026E0000AE050280ED0602811D10EE044F0080412
:1026F0000DE044F010040AE044F0200407E044F048
:10270000400404E044F0800401E044F4807428684C
:10271000816921F070018161296804204860002CE2
:1027200005D0686A204368622846FFF78FFEBDE83F
:10273000F09F70B5040003D094F8200010B104E0BD
:10274000012070BD204600F081F82068016841F04A
:102750000101016000F092FC0546052604E000F04E
:102760008DFC401B0A2811D820684068C007F6D0AD
:102770002068016821F00201016000F07FFC05463D
:102780000BE000F07BFC401B0A2806D9606A40F48D
:102790000030606284F82060D2E7206840688007DB
:1027A000EFD4207E0128206801683DD021F080010F
:1027B0000160607E01282068016838D021F0400166
:1027C0000160A07E01282068016833D021F020013B
:1027D0000160E07E0128206801682ED041F01001E0
:1027E0000160207F01282068016829D021F00801BC
:1027F0000160607F01282068016824D021F0040175
:102800000160D4E902010843D4E9041211430843EA
:102810006168491E08432168C86100206062012088
:1028200084F82000002070BD41F08001C0E741F035
:102830004001C5E741F02001CAE721F01001CFE7D0
:1028400041F00801D4E741F00401D9E710B586B0A2
:10285000044614216846FEF7C3FA1B4920688842E3
:102860002FD11A480021026842F00072026000680D
:1028700000F00070059015481038026842F0080218
:1028800002600068022200F0080005900320CDE9F4
:102890000210CDE900020920049069460C4800F0BE
:1028A000CDFA00220521132000F086FC132000F051
:1028B00075FC00220521142000F07EFC142000F09D
:1028C0006DFC06B010BD00000064004040380240BE
:1028D000000C02407047000010B500683E498AB005
:1028E000884223D16B4602AA00213C48FFF7AFFD86
:1028F0000298A0F20120062818D2DFE800F00319A0
:102900002C3E1753BDF80000354C40BA2080BDF86E
:10291000020040BA6080BDF8040040BAA0809DF873
:102920000600E08020464EE0401CE0640AB010BD86
:10293000BDF8000041BA2B4801804188C181BDF833
:10294000021049BA4180BDF8041049BA81809DF84F
:102950000610C18023E0BDF80000234C40BA20805F
:10296000BDF8020040BA6080BDF8040040BAA08003
:102970009DF80600E080204625E0BDF8000041BA41
:102980001A4801804188C181BDF8021049BA4180CE
:10299000BDF8041049BA81809DF80610C18007F087
:1029A0009FFDC3E7BDF80000114C40BA2080BDF880
:1029B000020040BA6080BDF8040040BAA0809DF8D3
:1029C0000600E080204607F08BFDE06C0028ABD1CC
:1029D0002188A4F84210A7E700640040E81D002009
:1029E000A88B0020688D0020888C0020F88C0020A7
:1029F000188C0020704770477047000070B504467F
:102A000090F82000012804D0606A40F40020606241
:102A100018E0022084F820002068016821F00101FC
:102A2000016000F02BFB05460EE000BF00F026FB26
:102A3000401B0A2808D9606A40F400306062052013
:102A400084F82000012070BD20684068C007EDD1E7
:102A5000606270BD7047704770477047704770473D
:102A600070472DE9F0410446876D00F007FB0646EC
:102A700094F835000025022806D08020606584F88F
:102A800034500120BDE8F0812068016821F0160172
:102A900001602068416921F080014161206C08B922
:102AA000A06C20B12068016821F008010160206855
:102AB000016821F0010101600CE000F0DFFA801BE9
:102AC000052807D920206065032084F8350084F8A4
:102AD0003450D7E720680068C007EED194F85C1046
:102AE0003F208840B860012084F8350084F83450D5
:102AF0000020C7E790F83510022903D080214165F6
:102B000001207047052180F835100068016821F028
:102B100001010160002070472DE9F84304464FF0A1
:102B20000009CDF8009063484FF41651A56D006878
:102B3000B0FBF1F72E6894F85C10082000FA01F160
:102B400031420FD021680A6852070BD50A6822F07B
:102B500004020A6094F85C108840A860606D40F040
:102B60000100606594F85C104FF0010808FA01F06C
:102B7000304208D021684969090604D5A860606D13
:102B800040F00200606594F85C10042088403042F8
:102B900008D021680968890704D5A860606D40F0F5
:102BA0000400606594F85C1010208840304218D012
:102BB00021680968090714D5A860206801684903DD
:102BC00004D50068000308D5A16C07E00168C905B9
:102BD00003D4016821F008010160216C09B120468D
:102BE000884794F85C1020208840304231D021681A
:102BF0000968C9062DD5A86094F835000528206815
:102C0000016806D0490347D5006800031DD4616CF4
:102C10001CE021F0160101602068416921F080016B
:102C20004161206C08B9A06C20B12068016821F0D6
:102C30000801016094F85C103F208840A86084F887
:102C4000358084F83490216D1FE0E16B09B1204696
:102C50008847606D00282BD0606DC00714D0052018
:102C600084F835002068016821F0010101600098B6
:102C7000401C0090B84203D820680068C007F6D115
:102C800084F8358084F83490E16C002910D001B0CC
:102C90002046BDE8F04308470168C905D5D401685E
:102CA00021F01001016084F8358084F83490CCE77D
:102CB000BDE8F883140000202DE9F041044600F03F
:102CC000DDF906465CB1022084F83500002584F861
:102CD00034502068016821F0010101600DE00120FD
:102CE000BDE8F08100F0CAF9801B052805D9202035
:102CF0006065032084F83500F2E720680068C007AB
:102D0000F0D12268116820480140D4E9010318433A
:102D1000D4E903363343184363691843A36918435E
:102D2000E3691843236A18430843616A042903D1FD
:102D3000D4E90B1319430843106020684069666AA0
:102D400020F0070130460E43012704280CD1A06A69
:102D50000643E06A40B12046FFF7B4F820B14020B6
:102D6000606584F83570BAE7206846612046FFF751
:102D700095F894F85C203F2191408160656584F866
:102D800035700020ACE700003F8010F02DE9F041E5
:102D90000446866D90F83400002501280DD00120EE
:102DA00084F8340094F835700020012F07D084F89F
:102DB000340002252846BDE8F0810220FBE7022707
:102DC00084F8357060652046FFF7A6F894F85C102B
:102DD0003F208840B0602068016841F01601016022
:102DE000206C20B12068016841F008010160206872
:102DF000016841F001010160DCE7000070B50446A4
:102E000000F03CF90546601C02D0044800780444F8
:102E100000F034F9401BA042FAD370BD0800002036
:102E200070470000044910B50A68024202D00860E9
:102E3000FFF7F6FF10BD0000143C01402DE9F84FEC
:102E4000DFF8F8A10022012403254FF00F090AF151
:102E5000040BAAF1040E00BF0B6804FA02F633401B
:102E6000B34270D10F7907F00307012F01D0022F71
:102E700016D187684FEA420805FA08FC27EA0C07D2
:102E8000D1F80CC00CFA08FC4CEA070CC0F808C0DA
:102E90004768B7430E79C6F3001696403E43466036
:102EA0000E79F643B6070AD0C7684FEA420C05FA16
:102EB0000CF6B7438E6806FA0CF63E43C6600E79F0
:102EC00006F00306022E10D1D60800EB8608D8F8CB
:102ED000206057074FEAD76C09FA0CF7BE430F6919
:102EE00007FA0CF73743C8F8207006684FEA420C1F
:102EF00005FA0CF7BE430F7907F0030707FA0CF742
:102F0000374307604E6816F4403F1CD04C4E37687C
:102F100047F480473760366822F0030706F480469E
:102F20000096484E07EB060CDCF8086897073F0F41
:102F300009FA07F826EA0806DFF80C81404503D1B4
:102F40004FF0000841E072E0DFF80081404502D117
:102F50004FF0010839E0DFF8F880404502D14FF02A
:102F6000020832E0DFF8EC80404502D14FF0030860
:102F70002BE0DFF8E480404502D14FF0040824E064
:102F8000DFF8D880404502D14FF005081DE0DFF89A
:102F9000D080404502D14FF0060816E0DFF8C4802B
:102FA000404502D14FF007080FE0DFF8BC804045F4
:102FB00002D14FF0080808E0DFF8B080404502D1A8
:102FC0004FF0090801E04FF00A0808FA07F848EA4C
:102FD0000608CCF80888DAF800605746D1F804C033
:102FE0009E435FEACC2C00D51E433E60DBF80060B8
:102FF0005F46D1F804C09E435FEA8C2C00D51E4387
:103000003E60DEF800607746D1F804C09E435FEA78
:103010008C3C00D51E433E60084F083F3E68D1F807
:1030200004C09E435FEACC3C00D51E433E60521C68
:10303000102AFFF411AFBDE8F88F0000083C0140F2
:1030400044380240003001400000024000040240C9
:1030500000080240000C0240001002400014024030
:1030600000180240001C02400020024000240240E0
:103070000AB1816170470904FBE7000001488068DC
:10308000704700000800002002488168027811445F
:1030900081607047080000200B4810B5016841F4BA
:1030A00000710160016841F480610160016841F4D0
:1030B00080710160032000F09FF80F2000F006F8F7
:1030C00000F050F8002010BD003C024030B505462D
:1030D000204887B00024016841F0010101600068C8
:1030E00006A900F00100009001A800F069F9049819
:1030F000B0B100F085F9400017494FF08042B0FBB5
:10310000F1F11648491E026040F2E732C0E903249B
:10311000C0E90114846100F041FE040003D015E011
:1031200000F06EF9E8E70D4800F066FE04000DD1EE
:103130001C2000F033F8102D07D2002229461C2055
:1031400000F03AF80648056000E0012407B0204688
:1031500030BD00004038024040420F00F8210020FE
:103160000C0000200C4882B0016841F480410160ED
:10317000006800F4804000900748001F016841F09B
:10318000805101600068002200F0805000900F2103
:10319000901E02B000F010B844380240002809DB4D
:1031A00000F01F02012191404009800000F1E02061
:1031B000C0F8001170470000F0B40E4B1B680C46BD
:1031C000C3F30223C3F10705042D00D90425191DFB
:1031D000072901D2002300E0DB1E012606FA05F1D3
:1031E000491E214099409E40761E16403143F0BC56
:1031F00004F0E1BF0CED00E0064900F007020868AA
:103200004FF6FF03184040EA0220034A10430860CB
:10321000704700000CED00E00000FA052DE9F843CE
:103220001748016841F0805101600068154F00F0B7
:103230008050012600903E64FFF720FF05464FF4C2
:103240007A78114C05E000BFFFF718FF401B40459E
:103250000DD86068C003F7D57E64FFF70FFF054601
:10326000464607E0FFF70AFF401BB04202D90320A1
:10327000BDE8F88360688003F4D50020F8E700001B
:103280004038024000000E42007000402DE9F04737
:103290000E46050065D0DFF81481D8F80000F7B2BB
:1032A00000F00F00B04207D288F80070D8F8000094
:1032B00000F00F00B04254D128683D4C810712D570
:1032C000400703D5206840F4E050206028780007CC
:1032D00003D5206840F4604020602068A96820F091
:1032E000F000084320602878C0072DD03049686876
:1032F0000839012812D0022813D0032811D00968F8
:10330000890700292DDA216821F00301014321609A
:10331000FFF7B4FE814641F2883A0EE0096889035E
:10332000EFE709688901ECE7FFF7A8FEA0EB0901C8
:10333000514502D90320BDE8F0872068696800F094
:103340000C00B0EB810FEFD1D8F80010404601F02F
:103350000F01B14207D90770006800F00F00B042BA
:1033600001D00120E7E72878400705D52068E96803
:1033700020F4E050084320602878000706D5206834
:10338000296920F4604040EAC100206000F058F84C
:103390002168084AC1F30311515CC840064908601E
:1033A00006480068FFF792FE0020C4E7003C024098
:1033B000083802400CC00008140000200C00002057
:1033C0000F2202600C4A136803F003034360136882
:1033D00003F0F0038360136803F4E053C3601268E2
:1033E0004FF4E05303EAD20202610448006800F09F
:1033F0000F0008607047000008380240003C02409F
:103400000448054900680968044AC1F38221515CF7
:10341000C840704714000020083802401CC0000853
:103420000448054900680968044AC1F34231515C07
:10343000C840704714000020083802401CC0000833
:10344000154810B5006810F00C02144813D0144948
:10345000042A0FD0082A0ED10F4C241F226823689B
:1034600002F03F025B0207D52068C0F38810A0FB82
:10347000010106E0084610BD2168C1F38811A1FBD7
:1034800000010023FDF762FC2168C1F30141491CE2
:103490004900B0FBF1F010BD083802400024F400F0
:1034A000001BB7002DE9F84F04006ED02078DFF83C
:1034B0004C93C007A9F104054AD009F10400016842
:1034C000C1F38101012908D00068C0F381000228FE
:1034D0000AD1D9F80000400206D52868800337D504
:1034E00060680028E1D033E06068B0F5803F10D01C
:1034F000B0F5A02F286810D020F48030286028680C
:1035000020F4802028606068A8B1FFF7B7FD064668
:103510000DE0286840F48030F4E740F48020286013
:10352000F7E700BFFFF7AAFD801B642873D828685F
:103530008003F7D50CE0FFF7A1FD064605E000BFCC
:10354000FFF79CFD801B6428F0D828688003F7D41F
:103550002078DFF8AC8280074FF0000A3ED5A748FC
:10356000001D016811F00C0F08D00068C0F3810045
:1035700002280BD1D9F80000400207D42868800740
:1035800016D5E068012800D112E033E1E068B8B157
:103590000120C8F80000FFF771FD064605E000BFF6
:1035A000FFF76CFD801B0228C0D828688007F7D57C
:1035B0002868216920F0F80040EAC10028600DE089
:1035C000C8F800A0FFF75AFD064604E0FFF756FDD5
:1035D000801B02281FD828688007F7D420780007AE
:1035E00022D5864F87486169703771B1012101602A
:1035F000FFF744FD064604E0FFF740FD801B02286C
:1036000009D838688007F7D50EE0C0F800A0FFF7AA
:1036100035FD064605E082E0FFF730FD801B0228FD
:103620007DD838688007F7D42078400768D5DFF860
:10363000CCB100270BF13C0BDBF80000C0000BD431
:10364000DBF8001041F08051CBF80010DBF80000EF
:10365000012700F0805000906B4E3068C00510D4F8
:10366000306840F480703060FFF708FD009005E09E
:10367000FFF704FD0099401A022850D83068C005B1
:10368000F6D55E4EA0686C3601280FD0052830684C
:1036900010D020F001003060306820F0040030606D
:1036A000A068B8B1FFF7EAFC00900FE0306840F086
:1036B0000100F4E740F004003060F7E7FFF7DEFCBC
:1036C0000099411A41F28830814266D830688007FB
:1036D000F4D50EE0FFF7D2FC009007E0FFF7CEFC38
:1036E0000099411A41F28830814256D830688007EB
:1036F000F4D42FB1DBF8001021F08051CBF800108A
:10370000A069C8B33D49091D0968C1F381010229B7
:103710004AD00228504607D0C8F8600000E03CE0DC
:10372000FFF7ACFC04463BE04746C8F86000FFF7F3
:10373000A5FC064605E000BFFFF7A0FC801B0228A1
:103740002BD828688001F7D4D4E907010843A16A7F
:103750002E4A490802EB0141626A41EA821108439C
:1037600094F82C1040EA0161C9F800100120386675
:10377000FFF784FC044606E03EE000BFFFF77EFC56
:10378000001B022809D828688001F7D534E000BF63
:10379000FFF774FC001B022802D90320BDE8F88F54
:1037A00028688001F4D427E00128F7D0D9F8000078
:1037B000E26900F4800191421CD1226A00F03F01CD
:1037C000914217D147F6C071626A0140B1EB821F86
:1037D00010D1A26A4FF0FF3300F4403103EB5202E4
:1037E000B1EB024F06D194F82C1000F07060B0EBF2
:1037F000016F01D00120D1E70020CFE7043802405B
:1038000000004742800E4742007000400000FFFF6A
:10381000704770B5040009D0606A002540B1256189
:103820006561A56294F8510040B10CE0012070BDC3
:103830006068B0F5827FF4D0E561F2E784F850501B
:10384000204600F045F8022084F851002068016805
:1038500021F040010160A088218900F4827001F408
:1038600004410843A18901F400610843217C01F06F
:1038700002010843217D01F001010843218B01F47D
:1038800000710843217F01F03801084394F82010AB
:1038900001F080010843218D01F4005108432168A3
:1038A0000860A069042101EA104094F8241001F096
:1038B00010010843216848602068C16921F4006153
:1038C000C1616565012084F85100002070BD0000D1
:1038D0002DE9F04F87B0064614216846FDF780FABF
:1038E0005248DFF844C13368504914380225032791
:1038F000052200244FF4806A4FF4403B634542D1D7
:103900000B6843F480530B60096801F48051059102
:10391000016841F002010160016801F002010591B6
:10392000016841F001010160006802AB00F0010094
:1039300005900820CDE90005904683E8900169468E
:103940003B48FFF77BFA8020CDE9000502AB6946D2
:1039500083E890013748FFF771FA384D364805F192
:103960000803286078066860402083E811046C61D1
:10397000AC61C5E9074B28466C624EE0B564AE63A6
:1039800007B0BDE8F08FDFF8B8C06345F8D10B6829
:1039900043F480130B60096801F4801105910168FC
:1039A00041F0200101600068029400F020000590C1
:1039B0004FF46070CDE90005CDE9037269462148F6
:1039C000FFF73CFA1D4D1C486035303828604FF039
:1039D0008069C5E90194C5E9034A6C61AC61C5E938
:1039E000074BD0465F4628466C62FFF765F908B181
:1039F000FEF700FCF564AE63104D0F48C035183873
:103A0000E5E802094020A5E811010C4845F81449F1
:103A1000C030AC61C5E907476C62FFF74DF900287B
:103A2000ACD0FEF7E7FBA9E7003001404438024084
:103A3000000402400000024088640240C01E0020D2
:103A400000500140001402402DE9F84F044690F860
:103A5000500000270A9E1D4692468B464FF00109F2
:103A600001280ED0012084F85000FFF707FB8046A4
:103A700094F85100616801280CD0B1F5827F07D11C
:103A800002E00220BDE8F88FA16809B9042801D03E
:103A90000227C2E0BBF1000F27D0BAF1000F24D0FB
:103AA0001DB394F85100042802D0052084F8510079
:103AB00000206065C4F838A0E587A587C4F830B059
:103AC000E586A5862064606420680168490603D401
:103AD000016841F040010160E068B0F5006F606886
:103AE00005D0E8B3012D46D07FE0012795E008B16D
:103AF000012D39D1206B21680088C860206B801CA3
:103B00002063E08E401EE0862EE0206881688907F1
:103B10000FD5E18E69B1B9F1010F0AD1216B098886
:103B2000C160206B801C2063E08E401EE0864FF059
:103B3000000920688168C9070CD0E18F51B1C068C5
:103B4000A16B0880A06B801CA063E08F401EE08703
:103B50004FF00109FFF792FAA0EB0800B04200E035
:103B600009E001D3701C50D1E08E0028CDD1E08F48
:103B70000028CAD13FE0206B216800780873206BD1
:103B8000401C2063E08E401EE0862EE020688168A5
:103B900089070FD5E18E69B1B9F1010F0AD1216B07
:103BA00009780173206B401C2063E08E401EE08684
:103BB0004FF0000920688168C9070CD0E18F51B12E
:103BC000C068A16B0870A06B401CA063E08F401E12
:103BD000E0874FF00109FFF751FAA0EB0800B0426F
:103BE00002D3701C01D010E07EB1E08E0028CDD150
:103BF000E08F0028CAD142463146204603F0D8FB68
:103C000028B101272020606507E0032705E0A068B0
:103C100018B92068C16880680090012084F85100BC
:103C2000002084F8500038462CE700002DE9F041D0
:103C3000044690F850000026012809D0012784F896
:103C4000507094F851000025012804D002264EE05F
:103C50000220BDE8F08189B182B1032084F85100CF
:103C600065652163A286E286A56365642564A587F0
:103C7000E587A068B0F5004F02D00BE0012636E0E2
:103C80002068016821F0400101602068016841F46A
:103C900080410160A16C18480864A16C1748C86392
:103CA000A16C1748C864A06C0565E38E2268216B7F
:103CB0000C32A06CFFF76AF838B1606D40F010006C
:103CC0006065012684F8517011E02068016849069A
:103CD00003D4016841F0400101602068416841F06F
:103CE000200141602068416841F00201416084F890
:103CF00050503046ADE70000417300084B73000898
:103D00001F730008704770477047704770B590F890
:103D10003C20012A32D0012480F83C40022280F865
:103D20003D2003685A689D6822F070060A68324395
:103D30005A60134B02689A4214D0B2F1804F11D0EE
:103D4000104B9A420ED0104B9A420BD00F4B9A4216
:103D500008D00F4B9A4205D00E4B9A4202D00E4B20
:103D60009A4204D1496825F080031943916080F894
:103D70003D40002180F83C10084670BD022070BD17
:103D8000000001400004004000080040000C00401A
:103D900000040140004001400018004010B504003C
:103DA00003D094F83D0010B107E0012010BD0020C1
:103DB00084F83C00204600F01EF8022084F83D0004
:103DC000211D206803F0CEFD012084F8460084F810
:103DD0003E0084F83F0084F8400084F8410084F8F5
:103DE000420084F8430084F8440084F8450084F8D5
:103DF0003D00002010BD704790F83D10012901D012
:103E000001207047022180F83D100168CA6842F025
:103E10000102CA6000681149884214D0B0F1804F95
:103E200011D00F4988420ED00E4988420BD00E495E
:103E3000884208D00D49884205D00D49884202D0F9
:103E40000C49884204D1816801F00701062903D09A
:103E5000016841F00101016000207047000001404D
:103E60000004004000080040000C00400004014035
:103E70000040014000180040704770B504460068DB
:103E800001694FF00005C943890715D4C168C943CA
:103E9000890711D4E91E016101202077206880691B
:103EA0008007204602D0FFF7E7FF04E000F0C0F8EB
:103EB000204600F065F9257720680169C943490764
:103EC00017D4C168C943490713D46FF004010161D5
:103ED000022020772068806910F4407F204602D0BD
:103EE000FFF7CAFF04E000F0A3F8204600F048F90D
:103EF000257720680169C943090716D4C168C943F9
:103F0000090712D46FF008010161042020772068AE
:103F1000C0698007204602D0FFF7AEFF04E000F042
:103F200087F8204600F02CF9257720680169C943FD
:103F3000C90617D4C168C943C90613D46FF010016C
:103F40000161082020772068C06910F4407F204676
:103F500002D0FFF791FF04E000F06AF8204600F07D
:103F60000FF9257720680169C943C90708D1C168DD
:103F7000C943C90704D1891E0161204600F066F9D2
:103F800020680169C943090609D4C168C943090603
:103F900005D46FF0800101612046FFF7B5FE20686F
:103FA0000169C943490609D4C168C943490605D412
:103FB0006FF040010161204600F04FF9206801696F
:103FC000C94389060BD4C168C943890607D46FF079
:103FD000200101612046BDE87040FFF796BE70BD2C
:103FE00010B586B0044614216846FCF7F9FE0D4969
:103FF0002068884214D10C48016841F00201016038
:104000000068012100F002000590202000900220AD
:10401000CDE901010390049069460448FEF70EFFC4
:1040200006B010BD000400403038024000040240D9
:10403000704770B5044690F83C0000260D460128F4
:104040000FD0012084F83C006AB1042A1DD0082A50
:104050002FD00C2A3FD00126002084F83C003046A7
:1040600070BD022070BD206803F0EEFC20688169FD
:1040700041F0080181612068816921F004018161BA
:10408000206881692A69114311E0206803F00CFD62
:104090002068816941F4006181612068816921F4AF
:1040A00080618161206881692A6941EA0221816118
:1040B000D2E7206803F02EFD2068C16941F00801B5
:1040C000C1612068C16921F00401C1612068C16932
:1040D0002A69114311E0206803F050FD2068C1698E
:1040E00041F40061C1612068C16921F48061C1614E
:1040F0002068C1692A6941EA0221C161ACE710B5B3
:10410000040003D094F83D0010B107E0012010BD79
:10411000002084F83C00204600F01EF8022084F8BD
:104120003D00211D206803F01DFC012084F846009D
:1041300084F83E0084F83F0084F8400084F8410091
:1041400084F8420084F8430084F8440084F8450071
:1041500084F83D00002010BD08B50068064988427B
:1041600008D10648016841F002010160006800F0D2
:104170000200009008BD00000004004040380240EA
:104180007047000010B50446022249B104290ED040
:10419000082913D094F84100012816D0012010BD41
:1041A00094F83E000128F9D184F83E200FE094F8FD
:1041B0003F000128F2D184F83F2008E094F8400045
:1041C0000128EBD184F8402001E084F8412001224D
:1041D000206803F02BFC16492068164A884201D05B
:1041E000904203D1436C43F4004343642068884207
:1041F00013D0B0F1804F10D00F4988420DD00F4935
:1042000088420AD00E49884207D0904205D00D4915
:10421000884202D00C49884204D1816801F007012C
:10422000062903D0016841F001010160002010BDA2
:10423000000001400004014000040040000800406C
:10424000000C004000400140001800400068B0F140
:10425000804F01D1FEF718BF70477047704710B507
:1042600004460068406994F83D10C0F3C01021294D
:1042700011D180B12068143050E8001F21F0800176
:1042800040E80012002AF5D1606B08B1FEF7E9FBA7
:10429000204603F095FD2068406994F83E10C0F375
:1042A0008010222911D180B12068143050E8001FFD
:1042B00021F0400140E80012002AF5D1A06B08B1BE
:1042C000FEF7CFFB204603F054FD002010BD08B5DB
:1042D000016C082903D1006801684068009008BD9E
:1042E000F8B5016804460868CA684B6910F00F0FFA
:1042F0004FF0000559D003F0010602F490773743E0
:1043000065D0C10705D0D10503D5216C41F001016D
:104310002164410705D5D90703D0216C41F0020182
:104320002164810705D5D90703D0216C41F0040130
:104330002164010707D502F02001314303D0216C2D
:1043400041F008012164216C00293AD0800604D58F
:10435000900602D5204603F041FD20684069216C9B
:10436000C0F38010090700D460B3204603F001FDBC
:1043700020684069400621D52068143050E8001FAD
:1043800021F0400140E80012002AF5D1A06BA8B14D
:104390006C490165A06BFEF7ADFB002811D0A06B46
:1043A000016D01B0BDE8F040084783060FD59306C4
:1043B0000DD52046BDE8F84003F010BD2046FFF7BC
:1043C00086FFF8BD2046FFF782FF2564F8BD266B07
:1043D0002023012E79D1C60677D5D60675D5086873
:1043E000486800904869400640D5A16B086840685D
:1043F0000004000CEAD0A28D8242E7D9E085C869AA
:10440000B0F5807F2DD020680C3050E8001F21F4DB
:10441000807140E80012002AF5D12068143050E87D
:10442000001F21F0010140E80012002AF5D12068A8
:10443000143050E8001F21F0400140E80012002A2B
:10444000F5D184F83E30256320680C3050E8001F19
:1044500021F0100140E80012002AF5D1A06BFEF710
:1044600000FBA08DE18D401A81B229E0A08DE18D85
:10447000401A81B2E08D0028A8D00029A6D020687B
:104480000C3050E8002F22F4907240E80026002EF5
:10449000F5D12068143050E8002F22F0010240E8E6
:1044A0000026002EF5D184F83E30256320680C30BC
:1044B00050E8002F22F0100240E80023002BF5D135
:1044C0002046FFF7CBFEF8BDFFE705062BD5150606
:1044D00029D594F83D002128F5D1A068B0F5805F7A
:1044E00001D12069B0B1206A411C216221680078A5
:1044F0004860E08C401E0004000CE084E3D120689A
:10450000C16821F08001C1602068C16841F04001AC
:10451000C160D8E7206A0088C0F308004860206ABC
:10452000801C2062E5E74006CDD55006CBD5CA6891
:10453000204622F04002CA6084F83D3000F0CCF9F9
:10454000C1E70000317C000870B5040004D094F885
:104550003D00002510B106E0012070BD84F83C50FC
:10456000204600F023F8242084F83D002068C1682C
:1045700021F40051C160204603F090FC20680169DD
:1045800021F4904101612068416921F02A014161D3
:104590002068C16841F40051C1602564202084F87E
:1045A0003D0084F83E00002070BD00002DE9F0477A
:1045B00086B0064614216846FCF712FC6849674A33
:1045C0003768002466481039022303254FF0080994
:1045D0004FF4806A97423AD1026842F0804202600A
:1045E000006800F080400590086840F01000086006
:1045F000086802AA00F010000590E801CDE9000368
:10460000012082E8210269465648FEF717FC574D03
:10461000554805F10802286080056860402082E85E
:1046200011046C614FF44030AC61C5E90740284685
:104630006C62FEF741FB08B1FDF7DCFD75630022FB
:1046400005215220AE63FEF7B7FD52203CE0444AFC
:10465000DFF81C81121D4FF0070C474539D1106857
:1046600040F010001060106800F01000059008681D
:1046700040F0020008600868694600F002000590FA
:10468000C0208DE839103B48FEF7D8FB374D3A483B
:10469000603528604FF00060C5E90104C5E9034AB0
:1046A0006C618012AC61C5E9074028466C62FEF778
:1046B00003FB08B1FDF79EFDB5630022052125200F
:1046C000AE63FEF779FD2520FEF768FD06B0BDE874
:1046D000F0872A4EB7421ED1026842F4802202605F
:1046E000006800F480200590086840F00800086029
:1046F0000868694600F0080005904FF440708DE8A6
:1047000039101F48FEF79AFB002205212720FEF7EB
:1047100053FD2720D8E71B488742D7D1106840F0C7
:1047200020001060106800F020000590086840F03C
:10473000400008600868694600F0400005904FF4AA
:1047400084408DE839021048FEF778FB00220521ED
:104750004720FEF731FD4720B6E700000078004013
:1047600040380240001002402860024038210020FA
:104770000010014000040240406402400048004034
:10478000000C0240001401400018024090F83E3036
:10479000202B0ED159B152B190F83C30012B08D0EA
:1047A000012380F83C300023036303F0FDBB0120AC
:1047B00070470220704790F83E30202B0ED159B13F
:1047C00052B190F83C30012B08D0012380F83C30E6
:1047D0000023036303F032BC0120704702207047BE
:1047E00038B504460068124988420DD11148007856
:1047F00001F012F910480068016840680090012239
:104800000C490D48FFF7D7FF0C49206888420DD1AD
:104810000B48006801684068064900900B221E3171
:104820000748FFF7C8FF07490120087038BD00009E
:10483000001401406E840020F42000200048004055
:10484000B02000209B0000207047000070B5044697
:1048500090F83D00202836D191B38AB394F83C00FB
:10486000012830D0012084F83C002162A284E28437
:1048700000252564212084F83D00636B1348D8632C
:10488000636B13481864636B1248D864606B1346FB
:1048900005652668606B321DFEF778FA21686FF0B7
:1048A0004000086084F83C502068143050E8001F35
:1048B00041F0800140E80012002AF5D1002070BDCF
:1048C000FFE70120FBE70220F9E70000277D000851
:1048D000697D0008417C00087047704770B5044648
:1048E00000203C4D2074A27B288861684243D4F8A4
:1048F000F400FCF75CFAA17B288841436068FCF770
:104900006FFAA07B10FB00F128884143D4F818010E
:10491000FCF766FA207BA17B10FB01F1288841435C
:10492000D4F80C01FCF75CFA00202BE0D4F8F4106A
:1049300001EB800292ED000AB5EEC00AF1EE10FA2A
:104940001ED0227C01EB820181ED000A227C616A8B
:104950008854A169227B01EB8001237C91ED000A40
:104960006169095C12FB03116FF0030202EB810124
:10497000D4F80C21114481ED000A217C491C2174DA
:10498000401CC0B2A17B8142D0D8002010E0636AF5
:10499000E2691B5C02EB830292ED000A10FB01014D
:1049A000D4F81821401C02EB8101C0B281ED000A4D
:1049B000217C8142EBD8C8B224F8780F14F86C0C33
:1049C000608020816181218361832084618424F857
:1049D000301C70BD46160020FEE70000F0B58D4C7F
:1049E0000F462DED068B054687B01646D0ED040A1E
:1049F00094ED050A884830EEC00AB0EEC00A10EE09
:104A0000101A814219DC95ED050A94ED061A30EE74
:104A1000410AB0EEC00A10EE101A81420DDC95ED8D
:104A2000060A94ED071A30EE410AB0EEC00A10EE05
:104A3000101A814201DC2878F0B39FED789A80EE5D
:104A4000890AFBF731FCF0EE400AF0EE609AD5EDF2
:104A5000050A80EE890AFBF727FCD5ED060AF0EE81
:104A6000401A80EE890AB0EE61AAFBF71DFCD5ED75
:104A7000040AF0EE40AA80EE890AFBF751FCF0EE42
:104A8000400AB0EE608AD5ED050A80EE890AFBF790
:104A900047FCD5ED060AF0EE408A80EE890AFBF766
:104AA0003FFC29EEAA2A68EE280AB0EE401AB0EEC2
:104AB000420A00EE810A00E02BE084ED080A2AEEAB
:104AC000080A6AEE880A002084ED090A29EE810AA4
:104AD00000EEE80A84ED0A0A29EEA80A20EE010A8F
:104AE0000AEEC80A84ED0B0A29EE8A0A84ED0C0A44
:104AF00028EE410A02EE680A84ED0D0A2AEE410A08
:104B000084ED0E0A2AEE2A0AC4ED0F8A84ED100AFB
:104B1000287000204FEA0D0107EB800292ED000A99
:104B200005EB8002D2ED010A01EB8002401C20EE71
:104B3000200AC0B2032882ED000AEDD39DED000AE1
:104B4000D4ED085A9DED011A94ED094A20EE252A6C
:104B5000DDED020AD4ED0A1A002004EE012A03A9B1
:104B600001EEA02A87ED002A94ED0B3AD4ED0C2A31
:104B700094ED0D2A60EE033A42EE813A42EE203A7D
:104B8000C7ED013AD4ED0E3AD4ED0F4A94ED105A28
:104B900020EE230A04EE810A05EE200A87ED020AC0
:104BA00006EB800292ED000A01EB8002401CC0B2CD
:104BB00082ED000A0328F3D39DED031ADDED040A0C
:104BC0009DED050A61EE255A44EE205A41EE805AC9
:104BD00061EE031A21EE231A42EEA01A04EEA01A87
:104BE000C6ED005A42EE001A05EE001AC6ED011A93
:104BF00086ED021A95ED040A84ED050A95ED050A85
:104C000084ED060A95ED060A84ED070A07B0BDECAF
:104C1000068BF0BDD41500206F12833AE12E654259
:104C200010B504462DED048BD0F8EC00D0ED009AC1
:104C300090ED019AD0ED028A29EEA90A90ED038A3F
:104C400009EE090A08EEA80A08EE080A05F0A2F81B
:104C50005FF00000D4F8EC1001EB8001401CD1EDB6
:104C6000000AC0B2042860EE800AC1ED000AF1D348
:104C70003E48D4F8001190ED6F0A60EE090AB6EED6
:104C8000000A60EE800AC1ED040AD0ED6F0AD4F884
:104C9000001160EEA80A60EE800AC1ED050AD0EDB1
:104CA0006F0AD4F8001120EEA91AFEEE000A21EED8
:104CB000201A81ED0A1A90ED6F1AD4F8001121EE36
:104CC000081A21EE001A81ED0B1A90ED6F1AD4F834
:104CD000001121EE081A21EE201A81ED101A90ED34
:104CE0006F1AD4F8001121EE291A21EE201A81ED55
:104CF000111A90ED6F1AD4F8001121EE281A21EE46
:104D0000000A81ED160A90ED6F0AD4F8001120EE2A
:104D1000090A20EE200A81ED170AD4F8F810D0ED28
:104D2000740A91ED1C0A80EE201A81ED1C1AD4F849
:104D3000F810D0ED740A0E4891ED230A80EE201A87
:104D40009FED0C0A81ED231AD4F8F8100A6F824205
:104D500001DD81ED1C0AD4F8F810D1F88C208242D4
:104D600001DD81ED230ABDEC048B10BD48910020CC
:104D700000401C4600401C4670B52C4C01252DED12
:104D8000028B04F5D8702570B7EE008A80EC030A18
:104D900000209FED270A84ED730A84F83801C4E9E6
:104DA0005000C4E9520011EE900AB0F17E5F01DDBF
:104DB000F0EE481AC4ED741A84ED642A032300222D
:104DC0000621201D00F0C4FE1A4B01221146A3F15A
:104DD0000800FBF773FB54F8EC0F9FED170A9022C5
:104DE00080ED008A54F86409184980ED010A606E6C
:104DF00080ED020A606E80ED030A1048A06410483E
:104E0000E064104820651048606504F85A5C04F8B6
:104E1000595CE06FFBF7CBFF606F9022BDEC028B1B
:104E20000B49BDE87040FBF7C2BF0000489100206D
:104E300077CC2B321093002000000000554E000864
:104E4000214C0008894E00086153000878DC0008F6
:104E5000A416002010B50446902254F8F81F084804
:104E6000FBF7A5FF48220748616AFBF7A0FF05484A
:104E700061694822BDE810404830FBF798BF000048
:104E8000A41600202893002070B50446B0EE000A56
:104E900054F8EC0F2B4DD0ED000A60EE800AC5ED02
:104EA000090AD0ED010A60EE800AC5ED0A0AD0EDCC
:104EB000020A60EE800AC5ED0B0AD0ED030A20EE6F
:104EC000800A85ED0C0A14F8DE0C14F8E01C10FBC7
:104ED00001F11D4800884143206AFBF781FFD5EDB1
:104EE0000B1A206AB1EE612A80ED002A206AD5ED06
:104EF0000C0AC0ED010A95ED090A206AB1EE401ACC
:104F000080ED021A206A95ED0A1A80ED031A206AD4
:104F100080ED061A206A80ED070A206AC0ED080AB3
:104F2000206AC0ED091A206A80ED0C0A206AB1EEF1
:104F3000410A80ED0D0A206A80ED0E2A206AC0ED3C
:104F40000F0A70BD601600204616002070B5F74CA1
:104F50002DED088BB0EE438AF0EE629AB0EE42AAD5
:104F6000F0EE61AA2078B0EE419AB0EE60BAF0EEB1
:104F700040BADFEDEF8A58B9B0EE682AF7EE001AB2
:104F80009FEDEC1ADFEDEC0AB2EE040AFFF7F4FE37
:104F900084ED6F8A94ED580AE84D90227BEEC00AAA
:104FA000E749C4ED5B0A94ED590A3BEE401A84EDE3
:104FB0005C1A94ED5A0A79EE401AB6EE000A60EED9
:104FC000800AC4ED5D1A60EE880AC5ED000A61EE44
:104FD000000A21EE800A60EE880A20EE080AC5ED7C
:104FE000010A85ED020AD4F8040104F58274FBF786
:104FF000DEFE95ED000A2068B1EE402A80ED012A20
:1050000095ED011A2068F1EE412AC0ED022AD5ED96
:10501000021A2068F1EE610AC0ED030A206880EDF3
:10502000060A2068C0ED081A2068C0ED092A206829
:1050300080ED0C1A2068C0ED0D0A206880ED0F0A83
:105040002068C0ED121A206880ED131A54F8440B42
:1050500080ED142A74E85201084305D1C4ED5EAA1C
:1050600084ED5FAAC4ED609A94ED5E0AD4ED640A03
:1050700094ED6F1A20EE202A31EE200AC2EE001ABB
:1050800021EE2A2AC2EE002A31EEA22A84ED5E2AFF
:10509000D4ED5F1A61EEA02AC2EE801A61EE0A2AF0
:1050A00021EE291A82EE803A71EE831AC4ED5F1A5E
:1050B000D4ED602A62EEA02AC2EE800AC1EE002A78
:1050C00022EE020A01EEA10A70EEA20AC4ED600A05
:1050D00000EEA00A04F05EFE85ED030A5FF000001A
:1050E00004EB8001D1ED5E0AA16801EB800160EE66
:1050F000800A401CC0B2C1ED000A0328F0D394ED31
:105100005B0AD4ED5C0A20EE000A00EEA00AD4EDA2
:105110005D0A00EEA00A04F03DFEB7EE008A894960
:10512000C8EE000AC4ED650A95ED031A10EE900A68
:1051300088EE010A884284ED660A0BDA10EE100A46
:105140008149884206DD10EE100A8049884201DA62
:10515000012000E0002084F8390194ED6C0AD4EDC0
:105160006F0AD4F8180120EE200A80ED000A94EDB1
:105170006C0AD4ED6F0AD4F8180120EE200A80EDF5
:10518000070A94ED6C0AD4ED6F0AD4F8180120EEEA
:10519000200A80ED0E0A94ED6C0AD4ED6F0AD4F863
:1051A000180120EE200A80ED150A94ED6D0AD4ED69
:1051B0006F0AD4F8180120EE200A80ED1C0A94ED45
:1051C0006D0AD4ED6F0AD4F8180120EE200A80EDA4
:1051D000230AD4F81C0194ED6E0A80ED000AD4F87D
:1051E0001C0194ED6E0A80ED040AD4F81C0194EDC4
:1051F0006E0A80ED080A201D00F094FF606890EDB3
:10520000001A84ED541A90ED010A61EE012A84ED32
:10521000550AD0ED021AC4ED561A90ED032A40EE5D
:10522000002A84ED572AD0ED040A21EE021AC4EDBB
:10523000580AD0ED050AC4ED590A00EE211AC4ED52
:105240005A8AF0EE008AF0EE480A52EEA80A21EEE1
:10525000280A03F0E3F89FED3E9AF0EE480A20EEAC
:10526000090A84ED6A0A94ED541A94ED570A61EE26
:10527000011A40EE001A51EEA80AD4ED551A21EE9B
:10528000211AD4ED561A01EE801A21EE280A03F0F5
:10529000C5F820EE090A84ED690A94ED550AD4EDAB
:1052A000570A94ED561A20EE200AD4ED540A00EE67
:1052B000C10AF8EE000A20EE200A03F019F820EEE9
:1052C000090A244984ED680A94ED6A0AD4ED760A45
:1052D00070EE600A10EE900A884203DDB4F8D40143
:1052E000401E07E010EE900A1B49884204D9B4F82A
:1052F000D401401CA4F8D401B4F9D401DFED171A8D
:1053000000EE900AB8EEE01AF0EE400A41EE210AF3
:10531000C4ED6B0A84ED760AF4E95201401C41F1B8
:105320000001C4E90001BDEC088B70BD489100206C
:10533000000000008096184B6F12833A6016002020
:1053400078DC00089A99993ECDCC0C41CDCC2C410B
:10535000E12E654200003443000034C30000B44332
:105360002DE9F84F00F180010446783005460091A0
:10537000FBF762FC84F8C800B4F87800A4F8A80031
:10538000B4F85A00A4F8AA0004F1A80204F15801E4
:1053900091468B462846FBF72DFB84F8C800B4F8ED
:1053A000A800A4F8B000B4F88200A4F8B20004F198
:1053B000B002904648460099FBF71CFB84F8C800F1
:1053C000B4F89000A4F8A000B4F89200A4F8A200E9
:1053D00004F1A002154604F190014046FAF7EAFFF5
:1053E00084F8C80041462846B034FBF76BF82076B5
:1053F000E16BBF480126D1ED001AB0EE002AC0EDE6
:105400000D1AD1ED010A0027C0ED0E0A91ED020A36
:10541000B84D80ED0F0A91ED031A80ED101A60EE81
:10542000812A34F8380C2081668141EEC02AE06F71
:1054300062EE822AC0ED002A61EEA02A61EEA11A76
:10544000E06F40EE012A40EEE01A22EE822A40EEA2
:10545000401A80ED012AE06FB4F1B00441EE011A68
:10546000C0ED021AD4F82C0100EB870090ED000A81
:10547000B0EEC00A02F0B0FE05EB87007F1CFFB261
:1054800080ED610A032FEDD3B4F84800A4F8C00002
:1054900004F1C00204F1B801A4F8C26017468A46BC
:1054A00004F14800FBF744FB84F8C800B4F8C000DE
:1054B000A4F8A80024F8AA6F4A4639464046FBF7EC
:1054C00099FAA077E681E08A208251463846FBF7B8
:1054D000B3FBA077884A49465046FBF78BFAA07782
:1054E00095ED730AB6EE001AD5ED720A20EE011A98
:1054F000AA3CF4EEC10AF1EE10FA01D285F8386147
:10550000F4EEC00A0020F1EE10FA35DD95F83811FE
:1055100089B395F8391139B1D5E95021521C41F1BF
:105520000001C5E9502102E00021C5E95011D5E98B
:1055300050234FF0320C0021BCEB0202994102D201
:1055400085F8380136E06D4D14F80C2F2888424359
:10555000D4E937017434FBF72AFC14F8740C10FBFF
:1055600000F228884243D4E91E01FBF720FC04F82E
:10557000546CBDE8F88FFFE79FED611A20EE011A29
:10558000F4EEC10AF1EE10FA0DDD95F8381151B1C3
:1055900070EE600A9FED5B1A20EE010A80EE801A21
:1055A00085ED671A03E0B7EE000A85ED670A002172
:1055B000C5E9501184F82C00B4F85800A4F8A800EC
:1055C000B4F88200A4F8AA004A4658466C34009900
:1055D000FBF710FA04F85C0FA4F130029346414641
:1055E0004846C83CFBF706FA84F8C80000200DE0E6
:1055F000D4F81C11D5ED670A01EB8001401C91ED38
:10560000000AC0B220EE200A81ED000AB4F898101A
:10561000B4F89A2051438142EADC04209FED3A0A13
:10562000002105EB800C00EB400300BF9CED5D1AF0
:10563000D4F81C2103EB0108C1EE000A02EB88023A
:10564000491C92ED001AC9B2032960EE810AC2ED2D
:10565000000AEBD3401CC0B20628E1D334F8980FFF
:1056600052462084668439465846FBF7C3F984F8CD
:10567000300095F83801983C50B39FED240ADFEDD7
:10568000240A0420D4F8BC1095ED6F1A01EB8001B8
:1056900021EE001AD1ED001AF4EEC11AF1EE10FA63
:1056A00001DD81ED001AD4F8BC1095ED6F1A01EB05
:1056B000800121EE201AD1ED001AF4EEC11AF1EEAC
:1056C00010FA01D281ED001A401CC0B20628D9D3CD
:1056D000D4F8BC009FED0F0A04F1300280ED030AFC
:1056E000514604F13800FAF765FE84F8C80040E737
:1056F00060160020489100200893002046160020E4
:10570000CDCCCC3D6666663FDA0FC93F0AD7233C55
:105710000AD723BC00000000114810B590ED070A1D
:105720001048D0ED030A104801F09CFB0E4890EDA4
:105730000D0A04F07FF800EE100A9FED0C1ADFED61
:105740000C0AB8EEC00A04F065F8BCEEC00ABDE869
:10575000104010EE100A042182B2064802F036BA58
:105760004C890020D4150020588E00200000804F66
:1057700000000000E01F002010B52348B7EE000A2B
:105780002DED028B012180ED010A80ED020A9FEDD3
:105790001F8A80ED030A80ED048A80ED058A80ED82
:1057A000068A0170B0EE482AF7EE001A9FED181A2B
:1057B000DFED180A9FED180AFFF7DEFA0022114606
:1057C000F0EE484AB0EE484AF0EE483AB0EE483AB9
:1057D000F0EE482AB3EE042ADFED101AB0EE481AB4
:1057E000DFED0F0A9FED0F0A0F4801F061FD042164
:1057F0000E48FEF7C7FC04489FED0D0A983880ED6F
:10580000160ABDEC028B10BD9C8F0020000000002A
:105810008096184B6F12833A20BCBE4C00007A442D
:10582000000096430000FA44588E0020E01F00203C
:1058300096430B3C70B56F492DED028B8AB007C9BA
:1058400004AB83E807006C48FCF7A8FB6A4D85EDC4
:10585000010AD5ED020A30EE800A85ED020A2869B8
:10586000B0F57A7F7DD9654804F0E0FC6348644C6C
:1058700090ED000A04F11C0284ED070A90ED010A84
:10588000A2F10C0184ED080A90ED020A84ED090AE8
:1058900090ED030A84ED040A90ED040A84ED050AF4
:1058A00090ED050A01F1880084ED060AFFF796F8ED
:1058B000D4ED090A94ED070A02F0B0FD9FED518A7C
:1058C00020EE080ADFED500A80EE201A84ED201A3F
:1058D000D4ED090A94ED080A02F0A0FD20EE080AB2
:1058E000DFED4A0A04F1100080EE201A84ED211A3F
:1058F00095ED013A90EC060AFFF728FB444E20464E
:105900004ECE80E84E00024600F15C013948243852
:10591000FCF707F83748224602F168011838FCF70F
:1059200000F83448224602F174010C38FBF7F9FF05
:105930002246694604A8FCF7E8FB95ED010A002021
:105940004FEA0D0204EB800102EB8003D1ED070A60
:1059500093ED001A70EEC10A20EE802AD4ED160AEB
:1059600000E03AE030EE801A401CC0B20328C2EEDC
:10597000011A91ED0A2A62EE200A80EE812A71EE68
:10598000820AC1ED0A0ADDD31D4A02F13401A1F1F8
:105990000C00FBF7C6FF95ED010A002004EB800127
:1059A000401CD1ED100A91ED0D1AC0B2032841EE52
:1059B000000AC1ED100AF1D3164890ED6A0A84ED91
:1059C000240A90ED690A84ED230A90ED680A84EDBB
:1059D000220A90ED6B0A84ED250A287CC00701D1CC
:1059E000FFF79AFE2869401C28610AB0BDEC028BC3
:1059F00070BD00006CD90008D41500204C8900202F
:105A0000048F002000003443DB0F49C0DB0F494006
:105A100098920020489100202DE9F047494901243F
:105A2000DFF8248106464FF00009A5280FD0D8F8EA
:105A3000100008F1060AA1F11007052829DA0E5412
:105A4000401C0D46C8F81000052807D021E0C8F812
:105A500010400870C8F81890BDE8F0870521394853
:105A600002F070FBA8B16A788AF80020AA788AF858
:105A70000120BAF80010A8F80210E87888F80100B0
:105A80000520C8E9050438697862387D87F8280060
:105A9000E2E7D8F818000028DED0B8F90210294D46
:105AA000D8F8140014350931884203DA2E54401C0A
:105AB000C8F814008842CFD12248C8F81890143092
:105AC00002F022FB0028C7D069798AF80010A97972
:105AD0008AF80110BAF90010A8F80410D8F81C00D0
