:020000040800F2
:10000000C06600208502000833320008492D000830
:10001000313200085B0A0008394100080000000086
:10002000000000000000000000000000C501000802
:10003000DD0B00080000000021020008D53A00088E
:100040009F0200089F0200089F0200089F0200080C
:100050009F0200089F0200089F0200089F020008FC
:100060009F0200089F0200089F0200089F020008EC
:10007000150B00089F0200089F0200089F0200085D
:100080009F0200089F0200089F020008690A0008FA
:100090005D0A00089F0200089F020008DF0B0008AD
:1000A0009F0200089F0200089F0200089F020008AC
:1000B0009F0200089F0200089F0200089F0200089C
:1000C0009F0200089F0200089F0200089F0200088C
:1000D0009F020008F14000089F0200089F020008EC
:1000E0009F0200089F0200089F0200089F0200086C
:1000F0009F020008993B00089F0200089F02000829
:100100009F0200089F0200089F0200089F0200084B
:100110009F0200089F0200089F0200089F0200083B
:100120009F0200089F020008210B00082D0B000809
:100130009F0200089F0200089F0200089F0200081B
:100140009F0200089F0200089F0200089F0200080B
:100150009F0200089F0200089F020008F540000867
:100160009F0200089F0200089F0200089F020008EB
:100170009F0200089F0200089F0200080000000084
:100180009F0200089F0200086D3C00089F020008C3
:100190009F0200089F0200089F0200089F020008BB
:1001A00000000000000000009F020008DFF810D0EF
:1001B00000F016FC0048004721560008AFF300800D
:1001C000C06600202C4B19680868B0E8F04F80F337
:1001D0000988BFF36F8F4FF0000080F311887047DC
:1001E0000000000008480068006880F308884FF0AD
:1001F000000080F3148862B661B6BFF34F8FBFF37F
:100200006F8F00DF00BF00BF08ED00E0DFF80C00DB
:10021000016841F470010160704700BF88ED00E0A3
:10022000EFF30980BFF36F8F134B1A681EF0100FA6
:1002300008BF20ED108A20E9F04F106009B44FF09C
:10024000500080F31188BFF34F8FBFF36F8F05F01D
:100250002BFF4FF0000080F3118809BC1968086873
:10026000B0E8F04F1EF0100F08BFB0EC108A80F31A
:100270000988BFF36F8F704718000020EFF30580E7
:10028000704700000648804706480047FEE7FEE743
:10029000FEE7FEE7FEE7FEE7FEE7FEE7FEE7FEE736
:1002A000893B0008AD0100082DE9F05F05460020FC
:1002B00092469B4688460646814640241BE02846D7
:1002C00041464746224600F088FA53465A46C01A2D
:1002D000914110D311461846224600F06FFA2D1AAC
:1002E00067EB01084F4622460120002100F066FA24
:1002F00017EB00094E41201EA4F10104DFDC484643
:1003000031462A464346BDE8F09F2DE9F0410024DE
:10031000061B254671F1000605DA01240027D0EB03
:10032000070067EB0101161E73F1000605DA0027CE
:10033000D2EB0702012567EB0303FFF7B5FF864603
:100340000E4617469C46AC4204D00025D0EB050E65
:1003500065EB010624B10020D2EB000760EB030C33
:10036000704631463A466346BDE8F08140EA0103F3
:100370009B0703D009E008C9121F08C0042AFAD25B
:1003800003E011F8013B00F8013B521EF9D270471F
:10039000D2B201E000F8012B491EFBD270470022C7
:1003A000F6E710B513460A4604461946FFF7F0FF74
:1003B000204610BD2DE9FE4F804681EA0300C00FA4
:1003C0000C46009021F0004123F00045B8EB0200FC
:1003D000A94105D24046214690461C460B4602469E
:1003E00023F00040104347D0270DC7F30A00C3F3A2
:1003F0000A510290401A019040286BDAC3F31300AF
:1004000040F4801B0098924620B10023D2EB030AEF
:1004100063EB0B0B01985946C0F14002504600F0C7
:10042000CDF906460D4650465946019A00F0E5F9C9
:1004300010EB08006141002487EA115284EAE77357
:100440001A4340D0009A62B3019A012A4FEA075238
:1004500015DC001B61EB02014FF0004202EA07527B
:10046000CDE90042001C41F5801132462B4600F0D8
:100470001CFA03B0BDE8F08F40462146F9E7001BA7
:1004800061EB0201001C41F5801300185B4120184C
:10049000A2F5001747EB030140EAD570B6196D418C
:1004A00011E06D084FEA360645EAC0754FEA07527B
:1004B000001B61EB0201001C41F5801149084FEA65
:1004C00030000019514132462B4603B0BDE8F04FD1
:1004D00000F0DCB90098012240000023D0EB0202BA
:1004E00063EBE073009821464FEAE074B8EB00003C
:1004F00061EB0401E9E783F000435BE781F0004131
:1005000058E72DE9FE4F81EA030404F0004421F08E
:10051000004100944FF0000B23F0004350EA010427
:100520005ED052EA03045BD0C3F30A54C1F30A5508
:100530002C44A4F2F3340194A0FB0254C1F3130140
:1005400041F48011C3F3130343F4801301FB02440D
:1005500000FB034E840A970A44EA815447EA835712
:10056000A4FB076802958D0A05FB07854FEA932CCB
:1005700004FB0C542705029D4FEA065847EA16373C
:10058000B5EB08056EEB070C870E920E47EA811754
:1005900042EA8312A7FB0201B6EB0B0164EB0004F5
:1005A0002B0D43EA0C335E1844EB1C50DA465146DF
:1005B000E7FB0201C5F313044FEA0B3343EA14537C
:1005C0004FEA0432019C43EA0603A4F10C040294AE
:1005D000009CCDE900B400F068F903B0BDE8F08FED
:1005E00000200146F9E72DE9F04D81EA030404F00B
:1005F000004B21F0004514464FF0000A23F0004163
:1006000050EA050220D054EA01021DD0C5F30A5772
:100610000246C5F31303C1F31300C1F30A5640F4B5
:10062000801543F48013A7EB0608101BD64608F28A
:10063000FD3873EB050002D308F1010801E09218C0
:100640005B41B8F1000F03DA00200146BDE8F08DF0
:1006500000204FF48011064684460EE0171B73EB12
:10066000050705D3121B63EB050306434CEA010C97
:1006700049084FEA300092185B4150EA0107EDD17A
:1006800052EA030012D082EA040083EA050108431B
:1006900005D0101BAB4106D20122002306E0002248
:1006A0004FF0004302E06FF0010253101AEB060016
:1006B0004CEB085110EB0A0041EB0B01BDE8F04D8B
:1006C00000F0E4B8F0B4CA17CB0F50405140C61840
:1006D00041F100054FEAC372314628004FF09603FE
:1006E00003D0B623F0BC00F0A3B830460021F9E7F0
:1006F00010B500F0004420F00040C20DC0F3160019
:1007000040F400007F2A02DA0020014610BD0021DB
:10071000962A03DCC2F19602D04002E0963A00F03D
:100720004DF8002CF2D00023D0EB030063EB010165
:1007300010BD00F0004230F000400AD0C10D01F5BC
:100740006071C0F3160042EA0151C208400711432C
:10075000704700200146704701F0004330B421F09B
:10076000004150EA010206D00A0DA2F56072C1F301
:100770001301002A02DC30BC00207047440F44EA19
:10078000C104C100E01830BC00EBC25000F047B813
:1007900030B50B46014600202022012409E021FA51
:1007A00002F59D4205D303FA02F5491B04FA02F54E
:1007B0002844151EA2F10102F1DC30BD202A04DB21
:1007C000203A00FA02F1002070479140C2F1200364
:1007D00020FA03F3194390407047202A04DB203AA3
:1007E00021FA02F00021704721FA02F3D040C2F151
:1007F00020029140084319467047202A06DBCB1798
:10080000203A41FA02F043EAE07306E041FA02F3CB
:10081000D040C2F120029140084319467047002998
:10082000A8BF7047401C490008BF20F00100704776
:1008300010B4B0FA80FC00FA0CF050EA010404BFD6
:1008400010BC704749B1CCF1200421FA04F411FA2C
:100850000CF118BF012121430843A3EB0C01CB1D70
:100860004FEA00614FEA102042BF002010BC7047E1
:1008700000EBC35010440029A4BF10BC7047401CBB
:10088000490008BF20F0010010BC704710B5141ECD
:1008900073F1000408DA401C41F1000192185B4139
:1008A0001A4301D120F0010010BD2DE9F04D924610
:1008B0009B4611B1B1FA81F202E0B0FA80F2203227
:1008C0009046FFF77BFF04460F4640EA0A0041EAE4
:1008D0000B0153465A46084313D0114653EA010010
:1008E00019D0C8F140025046FFF777FF05460E4683
:1008F000504659464246FFF761FF084305D00120A4
:1009000004E020463946BDE8F08D0020054346EA64
:10091000E0762C4337430A986305E40AA0EB08000D
:100920000022FD0A44EA47540A3002D5002001465D
:10093000E9E7010510196941DDE908450019694138
:10094000BDE8F04DA2E7C1F30A52C1F3130140F232
:10095000FF3341F480119A4202DA002001467047C9
:1009600040F233439A42A2F2334202DC5242FFF792
:1009700034BFFFF723BF000030B5041E71F100043F
:1009800004DB4FF00044404264EB0101141E73F19C
:10099000000405DB1C464FF00043524263EB0403A6
:1009A000994208BF904230BD002801DBC0F10040F1
:1009B000002901DBC1F10041814202D24FF0004029
:1009C00004E04FF0005001D14FF0C0404FEA2062E8
:1009D000EFF3008162F31F6181F30088704700002C
:1009E000064C074D06E0E06840F0010394E807007C
:1009F00098471034AC42F6D3FFF7DCFB687F000861
:100A0000887F000870B58C1810F8015B15F007039B
:100A100001D110F8013B2A1106D110F8012B03E097
:100A200010F8016B01F8016B5B1EF9D12B0705D49F
:100A30000023521E0DD401F8013BFAE710F8013BE8
:100A4000CB1A921C03E013F8015B01F8015B521E04
:100A5000F9D5A142D8D3002070BDFEE7014800F0CF
:100A600062BA0000D8170020014800F05CBA00000C
:100A7000D817002000B500680B498BB0884210D110
:100A8000002001210190029008910590CDE9060116
:100A90000490009003900E2009906946034800F0EE
:100AA00047F90BB000BD000000640040D8170020DB
:100AB00030B589B0DDE90C54029100210491059113
:100AC00008210691110A8DF800108DF80120190AED
:100AD0008DF80210290A8DF804108DF80550210AAE
:100AE0008DF806108DF803308DF8074001236A4613
:100AF00002A900F0AFF809B030BD10B5044600F00F
:100B00009FFC0221204600F093F82046BDE81040EB
:100B1000FFF7B0BF014800F021BD0000DC19002044
:100B2000014800F01BBD00003C1A0020014800F005
:100B300015BD0000B018002001681823CAB2103A91
:100B4000B2FBF3F2054B6FF30901032A9B5CC3650B
:100B500000D9091D816508467047000070640008CF
:100B600010B5014600208B698A6A4FF0C07453B1FA
:100B7000B3F5005F15D072B1012A0CD0022A0AD059
:100B8000032A09D104E01AB1012A06D0022A03D1AE
:100B9000C96AC90100D5012010BDC96AA142FAD0B5
:100BA00010BD002AF7D0012AF2D0022AF3D0032A7E
:100BB000F3D010BD30B50468256825F48025256084
:100BC000046863608368402B036803D09960006801
:100BD000C26030BD9A600068C16030BD70474FF49C
:100BE000807000F041BE704710B558B1084C491EE6
:100BF0000BD310F8013B5340DBB234F8133083EAD7
:100C00001222F4E74FF6FF7010BD104610BD000031
:100C1000507D000810B5054C04E000BF10F8013B02
:100C20005340E25C491EF9D2104610BD507C0008CA
:100C300090F82020012A07D0022A05D0416A41F409
:100C40008021416201207047006842690A43426185
:100C500000207047F0B590F820500468A468012D7A
:100C600005D0022D03D0416A41F480215DE014F0EB
:100C7000406F01D1E50055D5C4F30164022C03D9BE
:100C8000416A41F4000150E00125A5401D608D68D6
:100C90004FF4C0739DB1CE6835434E6845EAC60532
:100CA000066803EB0417F5514FF4C275076805EBAE
:100CB00004150E697E51097D012905D009E00E88D1
:100CC000CD6845EA4655EBE701684E5946F4807613
:100CD0004E511179D579567941EA056195792D04FE
:100CE00045EA062529434FF4C676056806EB041647
:100CF000A9511178D57841EA0561957852782D048B
:100D000045EA022211434FF4C475026805EB04154D
:100D10005151006803EB0411425842F00102425065
:100D20000020F0BD416A41F4001141620120F0BD94
:100D300010B590F82020012A07D0022A05D0416A78
:100D400041F480214162012010BD3B48D0F80022CF
:100D500042F00102C0F80022D0F8002222F47C52B6
:100D6000C0F80022D0F800224B6A42EA0322C0F801
:100D700000220A7D02F01F0301229A40D0F81C32A3
:100D80009343C0F81C32CB69B3B9D0F80C3293430B
:100D9000C0F80C328C894B6864F31F434C6900EB3C
:100DA000C404C4F840320C890B6864F31F434C69D7
:100DB00000EBC404C4F84432CB69012B16D1D0F83F
:100DC0000C321343C0F80C320C884B6864F31F4399
:100DD0004C6900EBC404C4F840320C89CB6864F35E
:100DE0001F434C6900EBC404C4F844328B69002BE8
:100DF000D0F804320ED01343C0F804320B69002B34
:100E0000D0F8143208D01343C0F81432096A01290B
:100E100004D008E09343EFE79343F5E7D0F81C12C2
:100E20001143C0F81C12D0F8001221F00101C0F8E3
:100E30000012002010BD000000640040704730B573
:100E400090F82040012C05D0022C03D0416A41F4D7
:100E500080215DE00468002955D02469A40754D09E
:100E60004FF4D874056804EB01142D5915F00405EE
:100E7000956005682D594ED0ED08556005682C59D0
:100E800004F00204D4604FF4DA74056804EB011432
:100E90002D5905F00F05156105682D59C5F3072576
:100EA000956105682C59240C54614FF4DC72046878
:100EB00002EB0112A4581C700468A458240A5C7048
:100EC0000468A458240C9C700468A258120EDA70AE
:100ED0004FF4DE72046802EB0112A4581C7104681E
:100EE000A458240A5C710468A458240C9C710468FA
:100EF000A258120EDA71006881B1016941F0200137
:100F00000161002030BDE468A8E7416A41F40011A6
:100F10004162012030BD6D0D1560AFE7C16841F041
:100F20002001C160EDE72DE9F05F0546006800246F
:100F30004669D0F804908768D0F80CB0D0F810A0BB
:100F4000D0F81880F10748D0F90714D0012181604A
:100F5000B80703D5284600F0A0FA0CE0780702D5C0
:100F60004FF4006407E0380702D54FF4805402E0E4
:100F7000284600F091FAF80516D529684FF48070DC
:100F80008860B80503D5284600F089FA0CE078059A
:100F900002D544F4005407E0380502D544F48044F7
:100FA00002E0284600F07AFAF80316D529684FF4D3
:100FB00080308860B80303D5284600F072FA0CE050
:100FC000780302D544F4004407E0380302D544F422
:100FD000803402E0284600F063FA300707D55FEA64
:100FE000CB6004D52968102044F40074C8607007F1
:100FF0004FF0080707D55FEA0B7004D52868C76073
:10100000284600F05FF9B00706D52868C068800759
:1010100002D0284600F058F9700607D55FEACA608A
:1010200004D52968102044F480640861B00607D50F
:101030005FEA0A7004D528680761284600F0FCF9C9
:10104000F00606D528680069800702D0284600F01F
:10105000F4F9B00308D55FEAC96005D52968102006
:101060004860284600F0EAF9F00307D55FEA097006
:1010700004D528684760284600F014FA300446D5A5
:101080005FEA497040D5F00504D55FEAC87001D029
:1010900044F00104B00504D55FEA887001D544F03E
:1010A0000204700504D55FEA487001D544F00404D9
:1010B000300529D518F0700F26D008F070004028B0
:1010C00015D006DC102809D020280AD0302816D1E7
:1010D0000AE050280ED0602811D10EE044F0080438
:1010E0000DE044F010040AE044F0200407E044F06E
:1010F000400404E044F0800401E044F48074286873
:10110000816921F070018161296804204860002C08
:1011100005D0686A204368622846FFF78FFEBDE865
:10112000F09F70B5040003D094F8200010B104E0E3
:10113000012070BD204600F081F82068016841F070
:101140000101016000F0BCFC0546052604E000F04A
:10115000B7FC401B0A2811D820684068C007F6D0A9
:101160002068016821F00201016000F0A9FC054639
:101170000BE000F0A5FC401B0A2806D9606A40F489
:101180000030606284F82060D2E720684068800701
:10119000EFD4207E0128206801683DD021F0800135
:1011A0000160607E01282068016838D021F040018C
:1011B0000160A07E01282068016833D021F0200161
:1011C0000160E07E0128206801682ED041F0100106
:1011D0000160207F01282068016829D021F00801E2
:1011E0000160607F01282068016824D021F004019B
:1011F0000160D4E902010843D4E904121143084311
:101200006168491E08432168C861002060620120AE
:1012100084F82000002070BD41F08001C0E741F05B
:101220004001C5E741F02001CAE721F01001CFE7F6
:1012300041F00801D4E741F00401D9E710B586B0C8
:10124000044614216846FFF7AAF81B492068884223
:101250002FD11A480021026842F000720260006833
:1012600000F00070059015481038026842F008023E
:1012700002600068022200F0080005900320CDE91A
:101280000210CDE900020920049069460C4800F0E4
:10129000F7FA00220521132000F09EFC132000F035
:1012A0008DFC00220521142000F096FC142000F093
:1012B00085FC06B010BD00000064004040380240CC
:1012C000000C02407047000030B50068524989B0F8
:1012D000884224D16B4602AA00215048FFF7AFFD97
:1012E00002984F4DA0F20120062818D2DFE800F046
:1012F00003193C4E177BBDF800004A4C40BA2080D1
:10130000BDF8020040BA6080BDF8040040BAA08079
:101310009DF80600E080204676E0401C606409B03D
:1013200030BDBDF80000404C40BA20806088E081AC
:10133000BDF8020040BA6080BDF8040040BAA08049
:101340009DF80600E080204604F004FAB4F902009B
:101350002968884202DC49428842E0DAD4E9123145
:10136000C2171818514133E0BDF800002F4C40BAA5
:101370002080BDF8020040BA6080BDF8040040BA89
:10138000A0809DF80600E08020463DE0BDF800000A
:10139000274C40BA20806088E081BDF8020040BA46
:1013A0006080BDF8040040BAA0809DF80600E0808F
:1013B000204604F0CFF9B4F902002968884202DC23
:1013C00049428842ABDAD4E91221C31710185941B7
:1013D000C4E91201626C521CD3176264FEF795FFD8
:1013E000A4F850009BE7BDF80000124C40BA2080E2
:1013F000BDF8020040BA6080BDF8040040BAA08089
:101400009DF80600E080204604F0A4F9606C0028F6
:1014100083D12188618780E700640040D8170020CD
:1014200080000020C85E002068600020985F0020D7
:1014300000600020305F0020704770477047000058
:1014400070B5044690F82000012804D0606A40F48A
:101450000020606218E0022084F820002068016803
:1014600021F00101016000F02BFB05460EE000BFFA
:1014700000F026FB401B0A2808D9606A40F40030BF
:101480006062052084F82000012070BD206840685B
:10149000C007EDD1606270BD7047704770477047FC
:1014A0007047704770472DE9F0410446876D00F0A2
:1014B00007FB064694F835000025022806D0802058
:1014C000606584F834500120BDE8F081206801682F
:1014D00021F0160101602068416921F0800141611D
:1014E000206C08B9A06C20B12068016821F00801C7
:1014F00001602068016821F0010101600CE000F04A
:10150000DFFA801B052807D920206065032084F8B6
:10151000350084F83450D7E720680068C007EED162
:1015200094F85C103F208840B860012084F83500B2
:1015300084F834500020C7E790F83510022903D012
:101540008021416501207047052180F83510006831
:10155000016821F001010160002070472DE9F84386
:1015600004464FF00009CDF8009063484FF416513F
:10157000A56D0068B0FBF1F72E6894F85C100820A8
:1015800000FA01F131420FD021680A6852070BD5E9
:101590000A6822F004020A6094F85C108840A8608F
:1015A000606D40F00100606594F85C104FF0010838
:1015B00008FA01F0304208D021684969090604D5CB
:1015C000A860606D40F00200606594F85C10042033
:1015D0008840304208D021680968890704D5A8608E
:1015E000606D40F00400606594F85C101020884045
:1015F000304218D021680968090714D5A86020680E
:101600000168490304D50068000308D5A16C07E010
:101610000168C90503D4016821F008010160216C4B
:1016200009B12046884794F85C1020208840304259
:1016300031D021680968C9062DD5A86094F8350015
:1016400005282068016806D0490347D500680003D3
:101650001DD4616C1CE021F0160101602068416915
:1016600021F080014161206C08B9A06C20B1206894
:10167000016821F00801016094F85C103F20884067
:10168000A86084F8358084F83490216D1FE0E16B08
:1016900009B120468847606D00282BD0606DC007D7
:1016A00014D0052084F835002068016821F001017C
:1016B00001600098401C0090B84203D82068006880
:1016C000C007F6D184F8358084F83490E16C0029A5
:1016D00010D001B02046BDE8F04308470168C905B5
:1016E000D5D4016821F01001016084F8358084F8B8
:1016F0003490CCE7BDE8F883140000202DE9F041D8
:10170000044600F0DDF906465CB1022084F835009D
:10171000002584F834502068016821F0010101603F
:101720000DE00120BDE8F08100F0CAF9801B05281A
:1017300005D920206065032084F83500F2E7206891
:101740000068C007F0D12268116820480140D4E940
:1017500001031843D4E9033633431843636918433C
:10176000A3691843E3691843236A18430843616A6D
:10177000042903D1D4E90B131943084310602068EE
:101780004069666A20F0070130460E4301270428AD
:101790000CD1A06A0643E06A40B12046FFF7E0F9A9
:1017A00020B14020606584F83570BAE72068466152
:1017B0002046FFF7C1F994F85C203F2191408160F9
:1017C000656584F835700020ACE700003F8010F0BC
:1017D0002DE9F0410446866D90F83400002501287B
:1017E0000DD0012084F8340094F835700020012FCA
:1017F00007D084F8340002252846BDE8F081022095
:10180000FBE7022784F8357060652046FFF7D2F9C0
:1018100094F85C103F208840B0602068016841F077
:1018200016010160206C20B12068016841F00801B8
:1018300001602068016841F001010160DCE70000FF
:1018400070B5044600F03CF90546601C02D004481F
:101850000078044400F034F9401BA042FAD370BD74
:101860000800002070470000044910B50A680242D1
:1018700002D00860FFF7F6FF10BD0000143C0140E5
:101880002DE9F84FDFF8F8A1002201240AF1040B3A
:1018900003254FF00F090BF1040E00BF0B6804FA8B
:1018A00002F63340B34270D10F7907F00307012FDE
:1018B00001D0022F16D187684FEA420805FA08FCCA
:1018C00027EA0C07D1F80CC00CFA08FC4CEA070C0C
:1018D000C0F808C04768B7430E79C6F300169640B3
:1018E0003E4346600E79F643B6070AD0C7684FEA12
:1018F000420C05FA0CF6B7438E6806FA0CF63E4326
:10190000C6600E7906F00306022E10D1D60800EB51
:101910008608D8F8206057074FEAD76C09FA0CF709
:10192000BE430F6907FA0CF73743C8F82070066802
:101930004FEA420C05FA0CF7BE430F7907F0030794
:1019400007FA0CF7374307604E6816F4403F1CD087
:101950004C4E376847F480473760366822F00307FB
:1019600006F480460096484E07EB060CDCF8086843
:1019700097073F0F09FA07F826EA0806DFF80C81F7
:10198000404503D14FF0000841E072E0DFF80081EC
:10199000404502D14FF0010839E0DFF8F8804045BA
:1019A00002D14FF0020832E0DFF8EC80404502D16E
:1019B0004FF003082BE0DFF8E480404502D14FF000
:1019C000040824E0DFF8D880404502D14FF0050834
:1019D0001DE0DFF8D080404502D14FF0060816E048
:1019E000DFF8C480404502D14FF007080FE0DFF870
:1019F000BC80404502D14FF0080808E0DFF8B08015
:101A0000404502D14FF0090801E04FF00A0808FAFA
:101A100007F848EA0608CCF80888DAF80060574664
:101A2000D1F804C09E435FEACC3C00D51E433E6023
:101A3000DBF800605F46D1F804C09E435FEA8C3C4F
:101A400000D51E433E60DEF800607746D1F804C042
:101A50009E435FEACC2C00D51E433E60084F0C37F6
:101A60003E68D1F804C09E435FEA8C2C00D51E432B
:101A70003E60521C102AFFF411AFBDE8F88F000041
:101A8000003C014044380240003001400000024068
:101A90000004024000080240000C02400010024016
:101AA0000014024000180240001C024000200240C6
:101AB000002402400AB1816170470904FBE700007D
:101AC00001488068704700000800002002488168D3
:101AD0000278114481607047080000200B4810B55F
:101AE000016841F400710160016841F480610160A6
:101AF000016841F480710160032000F08DF80F202F
:101B000000F006F800F03EF8002010BD003C024056
:101B100010B5014688B000222D2000F05DF82D2080
:101B200000F04CF813480024016841F48071016012
:101B3000006805A900F480700690684600F050F92E
:101B400000F06EF90C494000B0FBF1F10C480B4A73
:101B5000491E026040F2E732C0E90324C0E90114E3
:101B600000F0BEFC10B1012008B010BD044800F028
:101B7000E5FCF9E74038024040420F0000200040F9
:101B80009C1A00200C4882B0016841F48041016039
:101B9000006800F4804000900748001F016841F091
:101BA000805101600068002200F0805000900F21F9
:101BB000901E02B000F010B844380240002809DB43
:101BC00000F01F02012191404009800000F1E02057
:101BD000C0F8001170470000F0B40E4B1B680C46B3
:101BE000C3F30223C3F10705042D00D90425191DF1
:101BF000072901D2002300E0DB1E012606FA05F1C9
:101C0000491E214099409E40761E16403143F0BC4B
:101C100002F00CBB0CED00E0064900F0070208687A
:101C20004FF6FF03184040EA0220034A10430860C1
:101C3000704700000CED00E00000FA052DE9F843C4
:101C40001748016841F0805101600068154F00F0AD
:101C50008050012600903E64FFF732FF05464FF4A6
:101C60007A78114C05E000BFFFF72AFF401B404582
:101C70000DD86068C003F7D57E64FFF721FF0546E5
:101C8000464607E0FFF71CFF401BB04202D9032085
:101C9000BDE8F88360688003F4D50020F8E7000011
:101CA0004038024000000E42007000402DE9F0472D
:101CB0000E46050065D0DFF81481D8F80000F7B2B1
:101CC00000F00F00B04207D288F80070D8F800008A
:101CD00000F00F00B04254D128683D4C810712D566
:101CE000400703D5206840F4E050206028780007C2
:101CF00003D5206840F4604020602068A96820F087
:101D0000F000084320602878C0072DD0304968686B
:101D10000839012812D0022813D0032811D00968ED
:101D2000890700292DDA216821F003010143216090
:101D3000FFF7C6FE814641F2883A0EE00968890342
:101D4000EFE709688901ECE7FFF7BAFEA0EB0901AC
:101D5000514502D90320BDE8F0872068696800F08A
:101D60000C00B0EB810FEFD1D8F80010404601F025
:101D70000F01B14207D90770006800F00F00B042B0
:101D800001D00120E7E72878400705D52068E968F9
:101D900020F4E050084320602878000706D520682A
:101DA000296920F4604040EAC100206000F058F842
:101DB0002168084AC1F30311515CC8400649086014
:101DC00006480068FFF7A4FE0020C4E7003C02407C
:101DD0000838024078640008140000200C0000203D
:101DE0000F2202600C4A136803F003034360136878
:101DF00003F0F0038360136803F4E053C3601268D8
:101E00004FF4E05303EAD20202610448006800F094
:101E10000F0008607047000008380240003C024094
:101E20000448054900680968044AC1F38221515CED
:101E3000C840704714000020083802408864000839
:101E40000448054900680968044AC1F34231515CFD
:101E5000C840704714000020083802408864000819
:101E6000154810B5006810F00C02144813D014493E
:101E7000042A0FD0082A0ED10F4C241F2268236891
:101E800002F03F025B0207D52068C0F38810A0FB78
:101E9000010106E0084610BD2168C1F38811A1FBCD
:101EA00000010023FEF700FA2168C1F30141491C3B
:101EB0004900B0FBF1F010BD083802400024F400E6
:101EC000001BB7002DE9F84F04006ED02078DFF832
:101ED0004C93C007A9F104054AD009F10400016838
:101EE000C1F38101012908D00068C0F381000228F4
:101EF0000AD1D9F80000400206D52868800337D5FA
:101F000060680028E1D033E06068B0F5803F10D011
:101F1000B0F5A02F286810D020F480302860286801
:101F200020F4802028606068A8B1FFF7C9FD06464C
:101F30000DE0286840F48030F4E740F48020286009
:101F4000F7E700BFFFF7BCFD801B642873D8286843
:101F50008003F7D50CE0FFF7B3FD064605E000BFB0
:101F6000FFF7AEFD801B6428F0D828688003F7D403
:101F70002078DFF8AC8280074FF0000A3ED5A748F2
:101F8000001D016811F00C0F08D00068C0F381003B
:101F900002280BD1D9F80000400207D42868800736
:101FA00016D5E068012800D112E033E1E068B8B14D
:101FB0000120C8F80000FFF783FD064605E000BFDA
:101FC000FFF77EFD801B0228C0D828688007F7D560
:101FD0002868216920F0F80040EAC10028600DE07F
:101FE000C8F800A0FFF76CFD064604E0FFF768FDA7
:101FF000801B02281FD828688007F7D420780007A4
:1020000022D5864F87486169703771B1012101601F
:10201000FFF756FD064604E0FFF752FD801B02283D
:1020200009D838688007F7D50EE0C0F800A0FFF7A0
:1020300047FD064605E082E0FFF742FD801B0228CF
:102040007DD838688007F7D42078400768D5DFF856
:10205000CCB100270BF13C0BDBF80000C0000BD427
:10206000DBF8001041F08051CBF80010DBF80000E5
:10207000012700F0805000906B4E3068C00510D4EE
:10208000306840F480703060FFF71AFD009005E082
:10209000FFF716FD0099401A022850D83068C00595
:1020A000F6D55E4EA0686C3601280FD00528306842
:1020B00010D020F001003060306820F00400306063
:1020C000A068B8B1FFF7FCFC00900FE0306840F06A
:1020D0000100F4E740F004003060F7E7FFF7F0FCA0
:1020E0000099411A41F28830814266D830688007F1
:1020F000F4D50EE0FFF7E4FC009007E0FFF7E0FC0A
:102100000099411A41F28830814256D830688007E0
:10211000F4D42FB1DBF8001021F08051CBF800107F
:10212000A069C8B33D49091D0968C1F381010229AD
:102130004AD00228504607D0C8F8600000E03CE0D2
:10214000FFF7BEFC04463BE04746C8F86000FFF7D7
:10215000B7FC064605E000BFFFF7B2FC801B022873
:102160002BD828688001F7D4D4E907010843A16A75
:102170002E4A490802EB0141626A41EA8211084392
:1021800094F82C1040EA0161C9F80010012038666B
:10219000FFF796FC044606E03EE000BFFFF790FC28
:1021A000001B022809D828688001F7D534E000BF59
:1021B000FFF786FC001B022802D90320BDE8F88F38
:1021C00028688001F4D427E00128F7D0D9F800006E
:1021D000E26900F4800191421CD1226A00F03F01C3
:1021E000914217D147F6C071626A0140B1EB821F7C
:1021F00010D1A26A4FF0FF3300F4403103EB5202DA
:10220000B1EB024F06D194F82C1000F07060B0EBE7
:10221000016F01D00120D1E70020CFE70438024050
:1022200000004742800E4742007000400000FFFF60
:10223000704770B5040009D0606A002540B125617F
:102240006561A56294F8510040B10CE0012070BDB9
:102250006068B0F5827FF4D0E561F2E784F8505011
:10226000204600F045F8022084F8510020680168FB
:1022700021F040010160A088218900F4827001F4FE
:1022800004410843A18901F400610843217C01F065
:1022900002010843217D01F001010843218B01F473
:1022A00000710843217F01F03801084394F82010A1
:1022B00001F080010843218D01F400510843216899
:1022C0000860A069042101EA104094F8241001F08C
:1022D00010010843216848602068C16921F4006149
:1022E000C1616565012084F85100002070BD0000C7
:1022F0002DE9F04186B0064614216846FEF74FF8F6
:102300003848DFF8DCC03368002536491438022429
:1023100003220527634545D10B6843F480530B60C6
:10232000096801F480510591016841F002010160E2
:10233000016801F002010591016841F001010160AD
:102340000068904600F001000590082004978DE891
:10235000310169462448FFF793FA802004978DE8FD
:10236000310169462148FFF78BFA224C2048206052
:102370004FF0C06060604020C4E902050001C4E97C
:1023800004054FF44030A561C4E90750204665625A
:10239000FFF7B4F908B1FEF726FCB464A66306B0F3
:1023A000BDE8F081144EB342F9D10B6843F48013B9
:1023B0000B60096801F480110591016841F020016A
:1023C00001600068694600F0200005904FF47070CD
:1023D0008DE83100CDE903270848FFF751FADEE721
:1023E0000030014044380240000402400000024036
:1023F00058640240B0180020005001400014024010
:102400002DE9F041044690F850000026012809D03B
:10241000012784F8507094F851000025012804D059
:1024200002264EE00220BDE8F08189B182B103208E
:1024300084F8510065652163A286E286A563656420
:102440002564A587E587A068B0F5004F02D00BE0B2
:10245000012636E02068016821F040010160206813
:10246000016841F480410160A16C18480864A16CC6
:102470001748C863A16C1748C864A06C0565E38E53
:102480002268216B0C32A06CFFF7A2F938B1606DA5
:1024900040F010006065012684F8517011E020685A
:1024A0000168490603D4016841F0400101602068D9
:1024B000416841F0200141602068416841F002011B
:1024C000416084F850503046ADE70000E536000822
:1024D000EF360008C33600087047704770477047F2
:1024E00010B5040003D094F83D0010B107E00120BE
:1024F00010BD002084F83C00204600F01EF80220A9
:1025000084F83D00211D206801F04CFB012084F877
:10251000460084F83E0084F83F0084F8400084F8C8
:10252000410084F8420084F8430084F8440084F8B1
:10253000450084F83D00002010BD704790F83D1024
:10254000012901D001207047022180F83D10016867
:10255000CA6842F00102CA6000681149884214D07A
:10256000B0F1804F11D00F4988420ED00E498842F9
:102570000BD00E49884208D00D49884205D00D493C
:10258000884202D00C49884204D1816801F00701D9
:10259000062903D0016841F0010101600020704765
:1025A000000001400004004000080040000C004012
:1025B000000401400040014000180040704770B521
:1025C0000446006801694FF00005C943890715D426
:1025D000C168C943890711D4E91E01610120207730
:1025E000206880698007204602D0FFF7E7FF04E0FB
:1025F00000F098F8204600F096F8257720680169E9
:10260000C943490717D4C168C943490713D46FF0B8
:1026100004010161022020772068806910F4407F66
:10262000204602D0FFF7CAFF04E000F07BF8204606
:1026300000F079F8257720680169C943090716D4A5
:10264000C168C943090712D46FF008010161042071
:1026500020772068C0698007204602D0FFF7AEFFD0
:1026600004E000F05FF8204600F05DF82577206870
:102670000169C943C90617D4C168C943C90613D43F
:102680006FF010010161082020772068C06910F404
:10269000407F204602D0FFF791FF04E000F042F8AF
:1026A000204600F040F8257720680169C943C90732
:1026B00008D1C168C943C90704D1891E01612046F8
:1026C00000F032F820680169C943090609D4C168DD
:1026D000C943090605D46FF0800101612046FFF768
:1026E000FDFE20680169C943490609D4C168C94390
:1026F000490605D46FF040010161204600F01EF844
:1027000020680169C94389060BD4C168C943890699
:1027100007D46FF0200101612046BDE87040FFF74B
:10272000DEBE70BD7047704700680349884201D122
:10273000FFF7CCB970470000002000407047704799
:1027400010B504460068406994F83D10C0F3C0100D
:10275000212911D180B12068143050E8001F21F0E8
:10276000800140E80012002AF5D1606B08B1FEF745
:102770009AFE204601F048FB2068406994F83E101C
:10278000C0F38010222911D180B12068143050E8A4
:10279000001F21F0400140E80012002AF5D1A06B93
:1027A00008B1FEF780FE204601F007FB002010BDB7
:1027B00008B5016C082903D10068016840680090E1
:1027C00008BD0000F8B5016804460868CA684B698E
:1027D00010F00F0F4FF0000559D003F0010602F47E
:1027E0009077374365D0C10705D0D10503D5216C5B
:1027F00041F001012164410705D5D90703D0216CBF
:1028000041F002012164810705D5D90703D0216C6D
:1028100041F004012164010707D502F02001314392
:1028200003D0216C41F008012164216C00293AD0C9
:10283000800604D5900602D5204601F0F3FA206800
:102840004069216CC0F38010090700D460B32046B2
:1028500001F0B3FA20684069400621D520681430A1
:1028600050E8001F21F0400140E80012002AF5D195
:10287000A06BA8B16C490165A06BFEF75DFE002856
:1028800011D0A06B016D01B0BDE8F0400847830690
:102890000FD593060DD52046BDE8F84001F0C2BA29
:1028A0002046FFF785FFF8BD2046FFF781FF25642E
:1028B000F8BD266B2023012E79D1C60677D5D60622
:1028C00075D50868486800904869400640D5A16BF6
:1028D000086840680004000CEAD0A28D8242E7D963
:1028E000E085C869B0F5807F2DD020680C3050E8B5
:1028F000001F21F4807140E80012002AF5D1206801
:10290000143050E8001F21F0010140E80012002AB5
:10291000F5D12068143050E8001F21F0400140E854
:102920000012002AF5D184F83E30256320680C306F
:1029300050E8001F21F0100140E80012002AF5D1F4
:10294000A06BFEF7B0FDA08DE18D401A81B229E0A9
:10295000A08DE18D401A81B2E08D0028A8D0002919
:10296000A6D020680C3050E8002F22F4907240E886
:102970000026002EF5D12068143050E8002F22F0F8
:10298000010240E80026002EF5D184F83E30256390
:1029900020680C3050E8002F22F0100240E800239D
:1029A000002BF5D12046FFF7CAFEF8BDFFE705066C
:1029B0002BD5150629D594F83D002128F5D1A0681E
:1029C000B0F5805F01D12069B0B1206A411C21625D
:1029D000216800784860E08C401E0004000CE08410
:1029E000E3D12068C16821F08001C1602068C1681E
:1029F00041F04001C160D8E7206A0088C0F30800B8
:102A00004860206A801C2062E5E74006CDD550066C
:102A1000CBD5CA68204622F04002CA6084F83D3017
:102A200000F090F9C1E70000793C000870B504009F
:102A300004D094F83D00002510B106E0012070BDDF
:102A400084F83C50204600F023F8242084F83D0010
:102A50002068C16821F40051C160204601F042FAAB
:102A60002068016921F4904101612068416921F0E9
:102A70002A0141612068C16841F40051C1602564A8
:102A8000202084F83D0084F83E00002070BD000046
:102A9000F0B587B0064614216846FDF780FC59481A
:102AA0005749D6F800C00024022203230825071541
:102AB0008C453FD153491031D1F800C04CF0804CC7
:102AC000C1F800C0096801F080410591016841F03A
:102AD0001001016000680DF1080C00F01000059075
:102AE000D801CDE9000201208CE82900694646485A
:102AF000FEF7C6FE464D454805F1080128608005F1
:102B00006860402081E891006C614FF44030AC6116
:102B1000C5E9074028466C62FEF7F0FD08B1FEF7F4
:102B200062F87563002205215220AE63FFF754F866
:102B300052203DE03349DFF8DCE01431F4453BD16D
:102B40000D6845F010050D60096801F01001059150
:102B5000016841F0020101600068694600F002006E
:102B60000590C0208DE815000720CDE903302A48E4
:102B7000FEF786FE264D2948603528604FF000603C
:102B8000C5E90104C5E903476C618012AC61C5E980
:102B9000074028466C62FEF7B1FD08B1FEF723F846
:102BA000B563002205212520AE63FFF715F8252027
:102BB000FFF704F807B0F0BD194EB445FAD10E681E
:102BC00046F020060E60096801F0200105910168B9
:102BD00041F0400101600068694600F04000059046
:102BE0004FF484408DE81500CDE903350D48FEF71C
:102BF00047FE002205214720FEF7EEFF4720D7E7DA
:102C00000078004030380240001002402860024046
:102C1000DC19002000100140000402404064024022
:102C2000001401400018024090F83E30202B0ED1D5
:102C300059B152B190F83C30012B08D0012380F8F3
:102C40003C300023036301F0D3B901207047022018
:102C5000704790F83E30202B0ED159B152B190F808
:102C60003C30012B08D0012380F83C300023036363
:102C700001F006BA012070470220704708B50068CD
:102C8000094988420FD10948007800F05FF80848E8
:102C90000068016840680090BDE8084001220349CF
:102CA0000348FFF7D6BF08BD00140140EA570020D3
:102CB000981900207047000070B5044690F83D0058
:102CC000202836D191B38AB394F83C00012830D043
:102CD000012084F83C002162A284E284002525645E
:102CE000212084F83D00636B1348D863636B13485D
:102CF0001864636B1248D864606B134605652668D8
:102D0000606B321DFEF764FD21686FF040000860C3
:102D100084F83C502068143050E8001F41F08001D6
:102D200040E80012002AF5D1002070BDFFE7012025
:102D3000FBE70220F9E700006F3D0008B13D000805
:102D4000893C000870477047FEE700002DE9F04716
:102D500041490125414C06464FF00008A5280DD0F9
:102D6000206904F10609A1F11007052828DA0E549C
:102D7000401C8A462061052806D021E025610870A4
:102D8000C4F81880BDE8F0870521334801F0F4F954
:102D9000B0B19AF8012089F800209AF8022089F849
:102DA0000120B9F8001061809AF8030060700520D6
:102DB000C4E9050538697862387D87F82800E1E7BD
:102DC000A0690028DED0B4F90210DFF88CA0606999
:102DD00009310AF1140A884203DA0AF80060401C3B
:102DE00060618842CED11C48C4F81880143001F0CC
:102DF000A5F90028C6D09AF8052089F800209AF88D
:102E0000062089F80120B9F90000A080E269E56098
:102E1000521CE261104A103A01280CD0A0F5007053
:102E200001380FD00928ADD1957057F82B0F60628B
:102E3000B8882085A6E7157037F82B0F2081B87861
:102E4000A0729FE755700AF10701BDE8F0471B2209
:102E50000348FDF78BBA0000606100205815002080
:102E6000A56200200F4810B50D49016005214160A1
:102E700000214FF400328160C0E903125201426127
:102E80000176012242768176C17601774177FEF79D
:102E900048F9002803D0BDE81040FDF7A4BE10BDDE
:102EA00000640040D8170020154808B5016841F4B7
:102EB00080010160016801F480010091016841F422
:102EC000001101600068002200F40010009005214C
:102ED0000C20FEF781FE0C20FEF770FE002205217B
:102EE0003A20FEF779FE3A20FEF768FE002205211F
:102EF0003B20FEF771FEBDE808403B20FEF75EBEBA
:102F00003038024010B58EB01C220B496846FDF7E0
:102F10002DFA0021684602F0D5FB084C06491C2218
:102F200020601C3107A8FDF721FA002107A802F054
:102F3000C9FB60600EB010BD3864000800000020BE
:102F40002DE9F04F87B014216846FDF728FA644850
:102F50000024016841F002010160016801F00201F2
:102F60000591016841F040010160016801F04001F4
:102F70000591016841F001010160016801F0010162
:102F80000591016841F008010160016801F0080144
:102F90000591016841F480710160016801F480715C
:102FA0000591016841F020010160016801F02001F4
:102FB0000591016841F080010160016801F0800124
:102FC0000591016841F0100101600068DFF814917B
:102FD00000F010000122059051034846FEF76AFDFB
:102FE000DFF804A14FF4C066002231465046FEF7D8
:102FF00061FDDFF8F8B04FF40077002239465846FB
:10300000FEF758FD002244F203413948FEF752FD15
:1030100000223C213748FEF74DFD0022B91E4846EC
:10302000FEF748FD4FF40068002241463248FEF7A3
:1030300041FD781000904FF48810CDE901046946F5
:103040005046FEF71DFC42F2FE1000900125CDE92E
:103050000154694648460394FEF712FC0096CDE9F8
:103060000154694650460394FEF70AFC1126009766
:10307000CDE90164694658460394FEF701FC44F229
:1030800003000090CDE90154694619480394FEF706
:10309000F7FB3C200090CDE90154694615480394A4
:1030A000FEF7EEFBA8020090CDE9016469461048E6
:1030B0000394FEF7E5FBCDF80080CDE901546946A5
:1030C0000D480394FEF7DCFB002205211720FEF7D4
:1030D00083FD1720FEF772FD07B0BDE8F08F0000FA
:1030E0003038024000180240000402400020024034
:1030F00000140240001C0240001002400F4810B5AE
:103100000D4901604FF48271416000218160C1600E
:103110004FF400720161C0E90512C16101624162B0
:1031200081620A21C162FFF784F8002803D0BDE85C
:103130001040FDF758BD10BD0030014000180020C0
:103140000F4810B50D4901604FF4827141600021B4
:103150008160C1604FF480220161C0E90512C16144
:103160000162416281620A21C162FFF762F80028B0
:1031700003D0BDE81040FDF736BD10BD0050014042
:10318000581800200C4810B50A4901604FF4E1318D
:103190004160002181600C22C160C0E9041281619C
:1031A000C161FFF743FC002803D0BDE81040FDF7E4
:1031B0001ABD10BD00780040101900200C4810B551
:1031C0000A4901600B494160002181600C22C16005
:1031D000C0E904128161C161FFF728FC002803D017
:1031E000BDE81040FDF7FFBC10BD0000001001401D
:1031F00054190020A08601000C4810B50A4901604E
:103200004FF4E1314160002181600C22C160C0E9CE
:1032100004128161C161FFF709FC002803D0BDE8F9
:103220001040FDF7E0BC10BD0014014098190020CB
:10323000FEE7FEE730B40021084B0A465FF00000CD
:1032400003EBC004401CC0B262548028F8D3491C70
:10325000C9B20829F2D330BC00F002B99A58002054
:10326000CA0801F0070301219940044B03EBC00396
:10327000985C61EA0000C043985470479A58002057
:1032800030B1012807D100215FF0A70000F084B918
:103290000021A620FAE7704710B558B1012810D1D7
:1032A0000021C02000F078F90021A020BDE81040E6
:1032B00000F072B90021C82000F06EF90021A120B1
:1032C000F4E710BDCA0801F0070301219940034B40
:1032D00003EBC000835C0B43835470479A58002073
:1032E0002DE9F0411E4617468846044609E045464A
:1032F00004E0E9B2E0B2FFF7B3FF6D1CB542F8DDC0
:10330000641CBC42F3DDBDE8F081000070B5424DA5
:103310004FF48064002221462846FEF7CBFBC820EC
:10332000FEF78EFA012221462846FEF7C3FB002154
:10333000AE2000F031F90021084600F02DF90021FF
:10334000102000F029F90021402000F025F900218B
:10335000812000F021F90021CF2000F01DF900218B
:10336000A12000F019F90021C82000F015F9002172
:10337000A62000F011F90021A82000F00DF900218D
:103380003F2000F009F90021D32000F005F90021C9
:10339000084600F001F90021D52000F0FDF80021D9
:1033A000802000F0F9F80021D92000F0F5F8002184
:1033B000F12000F0F1F80021DA2000F0EDF8002112
:1033C000122000F0E9F80021DB2000F0E5F80021F0
:1033D000402000F0E1F80021202000F0DDF800217D
:1033E000022000F0D9F800218D2000F0D5F800214E
:1033F000142000F0D1F80021A42000F0CDF8002125
:10340000A62000F0C9F80021AF2000F0C5F8BDE803
:103410007040FFF70FBF0000000402400FB42DE919
:10342000F0410D4C15460AAA0F4680462260261F21
:103430000A48099900F0E8FE80B2084A308000216D
:10344000216011542B463946404600F085F8BDE80E
:10345000F0015DF814FB0000900000201A580020D5
:1034600070B5114E002400BF04F1B000C0B20021BD
:1034700000F092F80021084600F08EF8002110209C
:1034800000F08AF85FF0000506EBC5000121005D41
:1034900000F082F86D1CEDB2802DF5D3641CE4B20F
:1034A000082CE1D370BD00009A5800202DE9FF4F91
:1034B0001D460C468946580700D0012000EBD50078
:1034C000690810FB01F0203A00F0FF0A02F0FF0B40
:1034D000002637E00C2D12D0102D16D0182D33D128
:1034E0001A490BEBCB0001EB80004FF00008875D21
:1034F0002146380600980CD5FFF7E4FE0BE014488F
:103500000BEB4B0100EB8100EFE7124901EB0B10D5
:10351000EBE7FFF7A5FE7806641C070EE4B2A4EB08
:103520000900A84205D100984C46401CC0B200904A
:1035300006E008F1010000F0FF08B8F1080FD7D34A
:10354000761CF6B25645C5D3BDE8FF8FF46E000871
:1035500090640008046900082DE9F0411E461546F4
:1035600088460446C3F180070FE0334641462046B3
:10357000FFF79CFF04EB5600C4B2A74204DA08EB45
:103580000600022400F0FF086D1C2A78A2F120003A
:103590005E28EAD9BDE8F08173B50B4E6C464FF456
:1035A000007509B1012200E0002229463046FEF7ED
:1035B00081FA012221460548FEF722FF0122294611
:1035C0003046FEF777FA7CBD000402400018002068
:1035D00090ED000AB5EEC00AF1EE10FA03D2B1EE9A
:1035E000400A80ED000A90ED010AB5EEC00AF1EE46
:1035F00010FA03D2B1EE400A80ED010A90ED020A02
:10360000B5EEC00AF1EE10FA03D2B1EE400A80ED39
:10361000020A90ED0B0AB5EEC00AF1EE10FA03D2E1
:10362000B1EE400A80ED0B0A90ED090A80ED030A25
:10363000D0ED040A70EE800AC0ED040A90ED0A1A7B
:1036400070EE411AC0ED051A80ED0A0A90ED0B1AD2
:10365000F4EEC10AF1EE10FA06DCB1EE411AF4EE16
:10366000C10AF1EE10FA01D280ED041AD0ED000A81
:1036700060EE800AC0ED060A90ED010A90ED041A92
:1036800020EE010A80ED070A90ED021A30EE800A62
:1036900021EE211A80ED081A30EE010A80ED0C0AA5
:1036A000D0ED0D0AB4EEE00AF1EE10FA06DCF1EE10
:1036B000600AB4EEE00AF1EE10FA01D2C0ED0C0A95
:1036C000704710B5806B01684A6822F003024A60B7
:1036D000416D41F010014165012180F85110FEF764
:1036E000A7FD10BD10B5806BFEF7F7FE10BD38B515
:1036F0000546846BFEF7E4F9024628680068C005B9
:1037000023D42068416821F020014160206841688D
:1037100021F0020141606421204600F01BF818B13D
:10372000606D40F020006065A068002118B9206835
:10373000C26880680090E186012084F85100606DC5
:1037400018B12046FEF774FD38BD2046FEF7C4FED2
:1037500038BD000038B504461248134B0068B0FB72
:10376000F3F04FF47A73584300906068B0F5827FAD
:103770000DD10B46009200228021204600F016F861
:1037800070B1606D40F020006065032038BD009886
:1037900030B1401E009020688068C0430006F6D516
:1037A000002038BD1400002000366E012DE9F843DA
:1037B0001E46914688460446089DFEF781F9401B47
:1037C000351AFEF77DF9074625480068C0F3CB306F
:1037D000684338E0701C37D0FEF772F9C01BA8426E
:1037E00003D215B1009860B32CE02068416821F045
:1037F000E00141606068B0F5827F0BD1A068B0F550
:10380000004F02D0B0F5806F04D12068016821F02C
:1038100040010160A06AB0F5005F09D1206801682D
:1038200021F4005101602068016841F400510160F9
:10383000012084F85100002084F850000320BDE8E6
:10384000F8830025401E00902068816838EA010056
:1038500004D000214945BDD10020F0E70121F9E75E
:103860001400002092B0FFF751FD0020FFF708FD83
:103870000020FFF711FDFFF7DDFCDFF8F0A0DFF817
:10388000F0B03C484068FCF754FF04463A480D4607
:10389000006BFCF74EFF064638480F46006BFCF7FE
:1038A00048FF8046364889464068FCF742FF354B62
:1038B0000A460146D3E90603CDE90E45CDE91003DA
:1038C000CDE90C67BAF90200CDF82080CDE9099066
:1038D00054462D4DD4E9080307930491CDE9052002
:1038E000BBF96010BBF90200BBF90620B5F9063040
:1038F0004942404203928DE80B00B5F96030B5F9BA
:10390000022022A1314802F087FA31A318220521B2
:103910000020FFF783FD30A3182223210020FFF7AA
:103920007DFD1D23802205212D20FFF7D9FC3C239E
:10393000802225212D20FFF7D3FCB5F9020000904D
:1039400027A3182205212D20FFF768FDD4E90801DF
:10395000CDE9000122A3182228212D20FFF75EFDCA
:10396000FFF77EFD1E2001F0A1FE8AE7305F0020F8
:1039700000600020A85C0020405D0020785D0020F1
:10398000B45C0020C85E00206860002025642C2004
:1039900025642C2025642C2025642C2025642C20D3
:1039A00025642C2025342E33662C2025642C2025DC
:1039B000342E33662C2025642C2025342E33662C9F
:1039C0002025342E33662C2025640A00101900208F
:1039D000464C3A2000000000594C3A2000000000FC
:1039E000253464001CB501F0F1F841F2707001F06B
:1039F0005DFE2D4DD5E90801FCF764FE2B492C4EE8
:103A00002F4F4860B6F90000002400EE100A294844
:103A10004FF40078B8EEC00A40F2FF1980ED010AB9
:103A20002548B0F9000000EE100A2448B8EEC00A9C
:103A300080ED010A01F082F902F09CF901F028FA08
:103A4000386801281ED01F480068012826D01E486B
:103A5000B0F96000CDE900401C48B6F96020B0F92B
:103A6000603041461A48FDF723F800940194B5F9F7
:103A70006030002249461648FDF71AF8012001F08F
:103A800015FED7E7002300941A46414610480194DA
:103A9000FDF70EF8009400230194EAE700940194E6
:103AA000B6F960200023DCE7305F0020B45C002022
:103AB000C85E00209C5C0020985F0020A85C00206D
:103AC000D8140020D414002000600020686000207A
:103AD000D817002010B5502080F31188BFF34F8F06
:103AE000BFF36F8F02F0E0FB18B104494FF0805034
:103AF0000860002080F3118810BD000004ED00E094
:103B000030B593B030216846FCF749FC14210CA86D
:103B1000FCF745FC1A480025016841F0805101601E
:103B2000006800F0805011901648016841F440414F
:103B300001600068022400F44040119001200090D0
:103B4000000401908001CDE9064006200890B420D1
:103B5000CDE9090404200B906846FEF7B3F9FEF79F
:103B60006DF80CA90F2081E831004FF4A0500F90A0
:103B7000E002109005210CA8FEF798F813B030BDB4
:103B800040380240007000400248016841F4700172
:103B90000160704788ED00E00148FEF710BD0000AD
:103BA0009C1A0020F0B50268254C264D264E274F62
:103BB000274B4FF0804CA04209D0604507D0A84267
:103BC00005D0B04203D0B84201D0984204D122F0CF
:103BD000700E4A6842EA0E02A0421BD0604519D01E
:103BE000A84217D0B04215D0B84213D0984211D095
:103BF000184DA8420ED0184DA8420BD0174DA84220
:103C000008D0174DA84205D0164DA84202D0164D37
:103C1000A84203D122F44075CA682A434D6922F0B4
:103C200080022A4302608A68C2620A688262A042F5
:103C300001D0984201D10969016301214161F0BDC0
:103C4000000001400004004000080040000C00405B
:103C50000004014000400140004401400048014090
:103C600000180040001C0040002000400148FEF702
:103C7000A9BD00001019002010B5806B0021C1857E
:103C8000C184FEF795FD10BD70B5846B2068406956
:103C900094F83D10C0F3C0100025212904D118B1BB
:103CA000E584204600F0B0F82068406994F83E10A2
:103CB000C0F38010222904D118B1E585204600F018
:103CC0007CF8206C40F0100020642046FEF770FD68
:103CD00070BD10B50146806B09680968C9052FD40D
:103CE0000021C18501680C3151E8002F22F4807257
:103CF00041E80023002BF5D10168143151E8002F71
:103D000022F0010241E80023002BF5D101681431B3
:103D100051E8002F22F0400241E80023002BF5D1AA
:103D2000202180F83E10016B012909D101680C3176
:103D300051E8002F22F0100241E80023002BF5D1BA
:103D4000016B012902D0FEF799FF10BD818DFEF7AE
:103D5000F6FC10BD10B5806B016B012902D0FEF797
:103D6000A9FF10BD818D4908FEF7E9FC10BD10B513
:103D70000146806B09680968C90516D40021C18411
:103D80000168143151E8002F22F0800241E800233D
:103D9000002BF5D101680C3151E8002F42F04002B0
:103DA00041E80023002BF5D110BDFEF7CBFF10BD7D
:103DB00010B5806BFEF7C7FF10BD01680C3151E8EC
:103DC000002F22F4907241E80023002BF5D1016806
:103DD000143151E8002F22F0010241E80023002BAA
:103DE000F5D1016B012909D101680C3151E8002F8F
:103DF00022F0100241E80023002BF5D1202180F8A9
:103E00003E1000210163704701680C3151E8002F1A
:103E100022F0C00241E80023002BF5D1202180F8D8
:103E20003D10704708B590F83E10222901D00220BD
:103E300008BD82684FF480539A4201D1016921B1D3
:103E4000816A9A421BD04AB10AE00268816A5268CC
:103E5000C2F308020A80816A891C08E0026972B113
:103E60000268526802F07F020A70816A491C81620E
:103E7000C18D491E0904090CC18503D019E00268EF
:103E80005268F1E70168CA6822F02002CA6001683E
:103E9000CA6822F48072CA6001684A6922F001028D
:103EA0004A61202180F83E10016B012903D0FEF702
:103EB000E5FE002008BD0021016301680C3151E8D6
:103EC000002F22F0100241E80023002BF5D10168F9
:103ED0000A68D20602D50A6849680091818DFEF70A
:103EE0002EFCE6E770B5044600680169E26821F43B
:103EF0004051114301612169A068E2690843616989
:103F0000114308432168CA6849F20C639A4302438B
:103F1000CA6020684169A26921F44071114341617E
:103F200031492068884202D03049884202D1FDF7E9
:103F300087FF01E0FDF774FFE26900231921642582
:103F40003226B2F5004F626828D0A0FB0101930F22
:103F50009200FCF7A9F90146B0FBF5F06FF01802EA
:103F6000504301EB800006EB0010B0FBF5F000F0D1
:103F7000F002B1FBF5F002EB0012B1FBF5F06FF0CF
:103F80001803584301EB800006EB0010B0FBF5F07E
:103F900000F00F0021681044886070BDA0FB010193
:103FA00092185B41FCF780F90146B0FBF5F0020185
:103FB000B1FBF5F06FF01803584301EB800006EBFE
:103FC000C000B0FBF5F000F0F80002EB4002B1FBDE
:103FD000F5F0584301EB800006EBC000B0FBF5F0B4
:103FE00000F00700D6E70000001001400014014077
:103FF00038B5816282850025134604460564222077
:1040000084F83E00A26B1B48D063A26B1A48106470
:10401000A26B1A48D064A06B0A4605652168A06BA4
:10402000091DFDF7D5FB206801684068009084F801
:104030003C5020680C3050E8001F41F4807140E88B
:104040000012002AF5D12068143050E8001F41F01A
:10405000010140E80012002AF5D12068143050E830
:10406000001F41F0400140E80012002AF5D1002075
:1040700038BD0000D33C0008553D0008893C0008CD
:1040800081628285C28500210164222280F83E205F
:1040900080F83C100168CA6842F48072CA60016806
:1040A0004A6942F001024A610068C16841F020019A
:1040B000C1600020704700000B4808B50068016827
:1040C000C943C9060FD4016840680090074801F051
:1040D000D5F80548FEF734FBBDE808401222034935
:1040E0000148FEF7A1BD08BD541900200858002062
:1040F000FFF7E2BF0148FEF765BB000098190020FA
:1041000010B5044600681146C26842F01002C26051
:104110001A462046FEF788FD2068416941F00101FA
:10412000416110BD10B50446FEF793FD206841695A
:1041300041F00101416110BDFEE7000030B50C46C1
:10414000050014D0022C12D90A48A11E0288284664
:10415000FCF74AFD2919C2B211F8023C9A4206D175
:1041600011F8011CB1EB102F01D1012030BD00204E
:1041700030BD00005415002030B50C4605000CD0B1
:10418000022C0AD9FF22611EFCF744FD291911F8FF
:10419000011C814201D1012030BD002030BD000052
:1041A0001648DFED150A0121826912B980ED040A73
:1041B000816190ED041A30EE411AB5EEC01AF1EEAD
:1041C00010FA01DDC16105E0B5EEC01AF1EE10FA9A
:1041D00006D3C1694269914205DDDFED090A05E0B8
:1041E0004FF00001EEE701DADFED060A80ED040A88
:1041F0004161B0EE600A7047000000002C150020FD
:1042000000007042000070C237B514460846064BE5
:104210006A46214600F034F904466946002000F061
:10422000B2FC20463EBD0000874B00080907090E7E
:10423000002804DB00F1E02080F80014704700F053
:104240000F0000F1E02080F8141D704710B52DED2F
:10425000028BB0EE608AF0EE408A18EE101A18EE6B
:10426000900AFCF7A1FB00F07040B0F1005F0CD0A9
:1042700018EE100A20F00040C0F1FF40C00F02BF4E
:10428000B0EE480ABDEC028B10BDB0EE680ABDEC82
:10429000028B10BD10B52DED028BB0EE608AF0EEF2
:1042A000408A18EE101A18EE900AFCF77DFB00F019
:1042B0007040B0F1004F0CD018EE100A20F0004012
:1042C000C0F1FF40C00F02BFB0EE480ABDEC028B48
:1042D00010BDB0EE680ABDEC028B10BD02E008C84C
:1042E000121F08C1002AFAD170477047002001E070
:1042F00001C1121F002AFBD1704700002DE9FF5FAA
:1043000082B00021DDE90430020DDDF840B0034346
:1043100018D044F61050A2F2FF32424315141198FF
:1043200001281FD0A5EB0B00401C5FEA000A4FF0EC
:1043300000064E4FDFF83891B046504615D5CAF109
:10434000000413E0119801244AA3012801D16FEA67
:104350000B010298119AC0E90031C0E9024206B08F
:10436000BDE8F09FCBF10000DFE704460021404AA2
:10437000491842EB0450CDE9001012E0E00707D0E5
:1043800032463B4640464946FCF7BBF880468946E4
:1043900032463B4610461946FCF7B3F806460F4630
:1043A0006410002CEAD1DDE90401DDE90023BAF153
:1043B000000F06DAFCF7A5F842464B46FCF7A1F8D9
:1043C00005E0FCF710F942464B46FCF70CF90446B1
:1043D0000E460022284BFCF7CFFA03D84FF0FF30EF
:1043E000014607E00022254B20463146FBF7E2FF5D
:1043F000FCF7A9FA102409E0002C0ADB0A220023AA
:10440000FBF752FF039B30321A55641E50EA01023B
:10441000F2D1641C039AC4F111031444119A012AC5
:1044200003D0012208430DD10AE0084304D0002044
:104430004FF0110B119072E7A3EB0B056D1E0DE011
:104440005B4504DD4FF0000205F1010504E003DAED
:104450004FF00002A5F10105002AECD00298119955
:10446000C0E90231C0E9004579E7000000001440CE
:104470000000F03F300000000000F0430000E03F8B
:104480002DE9FF4F95B09A46884606460025EEE195
:10449000252877D100242746F94A0121039400E01A
:1044A000044316F8013F203B01FA03F01042F7D114
:1044B00030782A2811D06FF02F033078A0F1300225
:1044C000092A16D8039A44F0020402EB820203EB95
:1044D00042021044761C0390EFE758F8042B039235
:1044E000002A03DA504244F40054039044F00204DA
:1044F000761C30782E2816D116F8010F44F00404EB
:104500002A280DD06FF02F023078A0F13003092B4C
:1045100009D807EB870302EB4303C718761CF3E7C0
:1045200058F8047B761C30786C280FD006DC4C28B9
:1045300017D068280DD06A2814D104E0742810D050
:104540007A280FD10DE044F400140AE044F48014FA
:1045500001E044F440147278824202D104F58014E0
:10456000761C761C307866280BD013DC582877D060
:1045700009DC002875D04528F6D04628F4D0472815
:104580001AD193E118E0632835D0642879D06528E2
:1045900012D18BE1702873D008DC6728F1D069282C
:1045A0006FD06E280DD06F2806D1ACE073282CD0C8
:1045B000752874D0782853D05246179990476D1CAF
:1045C00054E1C4F30250022809D003280DD0D8F8D2
:1045D000001004280DD00D6008F1040846E1D8F859
:1045E0000010EA17C1E90052F6E7D8F800100D8074
:1045F000F2E70D70F0E718F8041B8DF800100020AA
:104600008DF80100EB46012003E058F804BB4FF0A1
:10461000FF3061074FF0000102D40DE009F1010104
:104620008946B9420FDA8145F8DB1BF809100029E9
:10463000F4D108E009F1010189468142FADB1BF857
:1046400009100029F6D103985346A0EB090721462B
:104650003846179A00F080FA284400EB090507E075
:1046600044E008E10DE01BF8010B52461799904712
:10467000B9F10109F7D2534621463846179AF2E0BC
:1046800039E00A21C4F302524FF0000B0091022AD4
:1046900006D058F8040BC117032A09D00AE023E01A
:1046A00008F1070020F00702F2E80201904605E059
:1046B00000B2C117042A01D140B2C117002906DA9D
:1046C0000A460021404261EB02012D2202E0220550
:1046D00004D52B228DF80420012203E0E20701D04B
:1046E0002022F7E7914657E00A2100E010214FF021
:1046F000000B00910BE010214FF0000B44F004047C
:104700000827009103E008204FF0000B0090C4F34D
:104710000252022A05D058F8040B0021032A08D0BF
:1047200008E008F1070020F00702F2E802019046D5
:1047300003E080B2042A00D1C0B24FF00009220782
:104740002AD53278702A07D0DDF800C08CF0100C22
:104750005CEA0B0C05D00EE040228DF8042001220B
:1047600008E050EA010306D030238DF804308DF8BC
:10477000052002229146009B83F0080353EA0B03B5
:104780000AD150EA010201D1620705D530228DF825
:1047900004204FF001097F1E3278582A04D039A234
:1047A0000C920CAA02920BE03BA2F9E75B46009A3E
:1047B000FBF77AFD0C9B9B5C029A521E02921370CF
:1047C00050EA0102F2D1029804A9081A00F1200B64
:1047D000600702D524F4803400E001275F4502DD44
:1047E000A7EB0B0000E0002000EB0B01009003980A
:1047F0004944401A0390E00306D453462146179AD1
:10480000039800F0A9F90544002706E001A85246E4
:10481000C05D179990476D1C7F1C4F45F6DBE00388
:104820000CD553462146179A039800F095F9054494
:1048300004E030205246179990476D1C0099481E9D
:1048400000900029F5DC08E00298029952460078B1
:10485000491C0291179990476D1CBBF10001ABF107
:10486000010BF1DC5BE100F065F90544761C307862
:1048700000287FF40DAE19B02846BDE8F08F000087
:104880000928010030313233343536373839616226
:1048900063646566000000003031323334353637EA
:1048A000383941424344454600000000600700D4C7
:1048B000062708F1070020F00700F0E802238046F1
:1048C00003F0004C5FEA0C0001D097A009E020053E
:1048D00001D596A005E0E00701D095A001E0AFF278
:1048E0004C001390307823F0004365280CD006DC90
:1048F000452809D046281DD047287FD13BE06628AF
:1049000018D067287AD136E00021112F01DB112061
:1049100000E0781CCDE9000104A90CA8FFF7EEFC2B
:10492000DDE90D010C9A4FF0000B07F1010910921F
:1049300000914EE04FF000400097CDE9011004A92E
:104940000CA8FFF7DBFCDDE90D020C9B0F994FF083
:10495000000B91461093009211B9791C00EB0109EC
:10496000B7EB090003D4C0F1FF3B07F10109A9EB44
:104970000700019042E0012F00DA01270021112FEA
:1049800001DD112000E03846CDE9000104A90CA8A2
:10499000FFF7B4FCDDE90D010C9A00914FF0000B1C
:1049A000B946109221070FD4009A4A4503DA91467E
:1049B00001E0A9F10109B9F1010F05DD109AA9F192
:1049C0000101515C3029F4D0B84202DA10F1040F31
:1049D00003DA0121CDE9011010E0002803DC834453
:1049E000A9EB000102E0411C494500DD8946A0EB2E
:1049F0000B00401C01904FF000400290200705D4AE
:104A00000198484502DB4FF0FF30019000208DF8FF
:104A10004B0002980DF14B07B0F1004F25D002205A
:104A20000C902B200D90029800280CDA4042029046
:104A30002D200D9007E00A210298FBF7A9FE3031E6
:104A4000029007F8011D0C99481E0C900029F2DC19
:104A500002980028EFD1791E0D980870307800F088
:104A6000200040F0450007F8020D11A8C01BC01D32
:104A700002901398007800B1012000EB0901019821
:104A800001EBE071029801440398401A401E039024
:104A9000E00306D453462146179A039800F05CF8C9
:104AA00005441398007818B15246179990476D1C29
:104AB000E00323D553462146179A039800F04CF89B
:104AC00005441BE0BBF1000F07DB0098584504DDEF
:104AD0001098179910F80B0001E0179930205246F2
:104AE000904701980BF1010B401E05F10105019063
:104AF00004D12E205246179990476D1CB9F1000140
:104B0000A9F10109DEDC05E017F8010B52461799FF
:104B100090476D1C0299481E02900029F4DC534610
:104B20002146179A03989EE62D0000002B000000F6
:104B3000200000002DE9F041044600251E461746DE
:104B4000880404D405E039462020B0476D1C641E5B
:104B5000F9D52846BDE8F0812DE9F041044600254D
:104B60001E469046C80301D5302700E02027880460
:104B700004D505E041463846B0476D1C641EF9D5A2
:104B80002846BDE8F0810A68531C0B60107070471E
:104B900010B510EE100AFBF7CCFD9FED081B53EC8F
:104BA000112BFBF720FD9FED071B53EC112BFBF79F
:104BB000A8FCFBF7D1FD00EE100A10BD6866666622
:104BC0006666214000000080F34C554110B5682115
:104BD0002DED048B5048FBF7E2FB4F486821D030A5
:104BE000FBF7DDFB4C4868216830FBF7D8FB6821F8
:104BF0004A48FBF7D4FB494868216838FBF7CFFBEC
:104C0000DFED478AB0EE682A9FED469AF0EE491A2A
:104C10009FED458A4548B0EE481AF0EE480AB0EEDE
:104C2000480A00F079FDDFED429A4048F0EE481A5C
:104C3000B0EE692AB0EE481AF0EE480AB0EE480A23
:104C4000383000F069FD3948B0EE682AF0EE491AB4
:104C5000B0EE481AF0EE480AB0EE480AE03000F034
:104C60005BFD2D48B0EE692AF0EE481AB0EE481A06
:104C7000F0EE480AB0EE480AE03800F04DFDDFEDF6
:104C80002D9A2A48F0EE491AB0EE692AB0EE481A79
:104C9000F0EE480AB0EE480A703000F03DFD2348BF
:104CA0009FED252AF0EE481AB0EE481AF0EE480AB9
:104CB000B0EE480AA83000F02FFD1748B0EE682A81
:104CC000F0EE491AB0EE481AF0EE480AB0EE480A83
:104CD000A83800F021FD1048B0EE682AF0EE491A1D
:104CE000B0EE481AF0EE480AB0EE480A703800F00C
:104CF00013FDB0EE692AF0EE491AB0EE481AF0EE54
:104D0000480AB0EE480ABDEC048B0348BDE81040E9
:104D1000383800F001BD0000C85E00206860002047
:104D200000007A4600409C4600000000D05C002055
:104D300000007A4500C0DA460000C84310B52DEDEA
:104D4000068B9FED432ADFED431A9FED438AB2EEB7
:104D50000A0A4248B0EE481AF0EE480A00F0DCFCBD
:104D6000DFED3F8A3D48F0EE481AB0EE682AB0EE1B
:104D7000481ADFED3C0A9FED3C0A383000F0CCFCCD
:104D80009FED3A9ADFED3A9A3448B0EE492AF0EEB8
:104D9000691AB0EE481ADFED370AB2EE020AE030C7
:104DA00000F0BAFC9FED34AAB0EE682AF0EE481A83
:104DB000B0EE481AF0EE4A0AB6EE000A2F4800F0AC
:104DC000ABFCDFED2FAA2548F0EE691AB0EE6A2A97
:104DD000B0EE001AF0EE480AB2EE0E0A703000F0A3
:104DE0009BFC2648B0EE682AF0EE481A9FED251A83
:104DF000F0EE4A0AB1EE0C0A703800F08DFC224C3D
:104E00001E48B0EE492A94EC030AF0EE691A3830D5
:104E1000241F00F081FC241D1848B0EE492A94ECB0
:104E2000030AF0EE691A703000F076FCB0EE6A2AE0
:104E3000F0EE691AB0EE481AF0EE480ABDEC068BA7
:104E40000E48BDE810409FED110AA83000F064BC88
:104E50000000FA4500803B4500000000D05C0020C7
:104E600000007A450AD7233CCDCC4C3F00007A465F
:104E700000409C469A99993ECDCCCC3DE85D0020FF
:104E800000C0DA4666660640301500200000704219
:104E90002DE9F05F7F4C2DED068B94ED010AFFF7B5
:104EA0007FF9D4ED010A30EE200ADFED7B0AFFF72F
:104EB000CDF9DFED7A0AFFF7EDF984ED010A7848C4
:104EC000784CF0EE408AD0ED019A7748C4ED169AFE
:104ED00004F1D00590ED019A04F16806734885ED60
:104EE000169AC6ED168A90ED008A04F5D07704F57F
:104EF0009C7887ED158AB1EE48AA88ED15AAD4E909
:104F00000801FBF7DFFB00EE100AA4F5E07939EEAB
:104F1000C00A89ED090AD5E90801FBF7D3FB00EEC9
:104F2000100AA4F1E00A39EE400A8AED090AD6E92E
:104F30000801FBF7C7FB00EE100AA4F5A87038EED5
:104F4000C00A80ED090AB7F9020000EE100AA4F1C8
:104F5000A800B8EEC00A38EE400A80ED090AB8F998
:104F6000020000EE100AA4F17000B8EEC00A3AEE9A
:104F7000400A80ED090A4846FEF72AFB5046FEF734
:104F800027FBA4F5A870FEF723FBA4F1A800FEF709
:104F90001FFBA4F17000FEF71BFBB4F90200D9ED72
:104FA0000C0A00EE100AA4F5FC7BA4F58C79B8EE8F
:104FB000C00A30EEC00A8BED090AB5F90200DAED3D
:104FC0000C0A00EE100AA4F5A870A4F5C47AB8EE95
:104FD000C00A30EEC00A89ED090AD0ED0C0AB6F914
:104FE000020000EE100A5846B8EEC00A30EEC00AC1
:104FF0008AED090AFEF7ECFA4846FEF7E9FA504650
:10500000FEF7E6FA9BED0C0ABDEEC00A10EE100AA0
:10501000A4F8600099ED0C0ABDEEC00A10EE100A6B
:10502000A5F860009AED0C0ABDEEC00A10EE100A59
:10503000A6F86000A4F1A80090ED0C0ABDEEC00A2D
:1050400010EE100AA7F86000A4F17000383C90ED53
:105050000C0ABDEEC00A10EE100AA8F86000B7F9FD
:105060005010B8F95000084400EE100A2046B8EE7F
:10507000C00A84ED090AFEF7ABFA94ED0C0A0C495C
:10508000BDEEC00A10EE100A0880BDEC068BBDE82C
:10509000F09F0000B45C0020003002C500803B455A
:1050A0009C5C0020C85E0020A85C0020C05C002042
:1050B0002C15002005484FF48061018041808180DB
:1050C000C18041810321017241727047D457002091
:1050D0002DE9F05F6048DFF8888104210078DFF86F
:1050E0007CA1002501264FF0020BA8F13004B1EBA2
:1050F000101F57D1A06908B92580A6615948DFF86B
:105100005C915A4F027858484FF4005109F1240934
:1051100022B1022A1FD0012A23D02EE00122FCF75F
:10512000C9FCD7E9061040F22532891A70F1000057
:1051300007DA9AED010ADFED4E0A30EE200A8AED19
:10514000010AB4F9001008EB011090ED020A89ED94
:10515000000AA56011E09FED470AA56089ED000AED
:105160000BE00022FCF7A6FCA660B7F9000000EEF9
:10517000100AB8EEC00A8AED010AD7E9060140F22A
:105180003F12821A71F1000201DA25801EE04FF40D
:105190001172801A71F1000001DA268016E0A4F87D
:1051A00000B013E03448017A01290DD1407A01287A
:1051B00004D0022804D0032805D005E0258003E0B0
:1051C000A4F800B000E02680A660A561B4F9000054
:1051D000454608EB0010407800F02AF9B4F90000C9
:1051E00005EB0010007800F0FBF9B4F90000B4F909
:1051F000022090422BD0194905EB02121831D2ED52
:10520000010A91ED010A05EB001030EE600AD0EDC5
:10521000010A30EE200A81ED010A92ED030AFFF740
:10522000B7FC0E4E0C36D6ED010A30EEC00A86ED04
:10523000010AB4F9000005EB001090ED030AFFF736
:10524000A7FCD6ED010A30EE200A86ED010A20887F
:105250006080BDE8F09F0000601500209C5C00208D
:10526000FC1400207C15002000180240C85E0020BD
:105270000000E14300D0E845D4570020F0B50028F5
:1052800079D03E490888C0F30A033D4803804A7834
:10529000D4088A7844EA4214C4F30A054580CC78DD
:1052A000920942EA84040A7944EA8224C4F30A0493
:1052B00084804E79520842EAC612C2F30A02B70944
:1052C000C2800772C6F301164672CE888681B1F994
:1052D0000870C7814E8906820E7B867491F80DC0D6
:1052E00080F813C0B1F80EC0A0F814C0098AA3F268
:1052F000FD3CC1F30A0141814FF48061BCF1060F0E
:1053000000D80B460380A5F2FD33062B00D80D46CE
:10531000A4F2FD334580062B00D80C46A2F2FD33E3
:105320008480062B00D91146C1801649B1F90220AC
:10533000BB1A9633B3F5967F00D9C281B0F90E300F
:10534000934203D113B18A88521C8A808B88002231
:10535000322B01D98A80C281C3894B80012E02D0B1
:105360000A8009E007E00B885B1C9BB20B80062BD0
:1053700002D901218174F0BD8274F0BD085800206B
:10538000D45700208400002010B5254C01220421B0
:105390002046FCF78FFB012208212046FCF78AFB00
:1053A000012210212046FCF785FB01222021204606
:1053B000FCF780FB1B4C012202212046FCF77AFB04
:1053C000012204212046FCF775FB0122082120461A
:1053D000FCF770FB012210212046FCF76BFB012239
:1053E00020212046FCF766FB012240212046FCF7E5
:1053F00061FB012280212046FCF75CFB01221102A7
:105400002046FCF757FB012291030748FCF752FBAB
:105410000122BDE81040D1020448FCF74BBB00005C
:10542000001C02400018024000140240001002401C
:1054300070B56A4CA51509287ED2DFE800F0050793
:105440002C333F506683A300012200E0002202219A
:105450002046FCF72FFB012204212046FCF72AFB03
:10546000012208212046FCF725FB012210212046BD
:10547000FCF720FB012220212046FCF71BFB012228
:1054800040212046FCF716FB012280212046FCF734
:1054900011FB01229AE0002202212046FCF70AFBC0
:1054A0000022D9E7002202212046FCF703FB00225C
:1054B00004212046FCF7FEFA0022D2E70022022156
:1054C0002046FCF7F7FA002204212046FCF7F2FA06
:1054D000002208212046FCF7EDFA0022C6E7002250
:1054E00002212046FCF7E6FA002204212046FCF7C0
:1054F000E1FA002208212046FCF7DCFA0022102104
:105500002046FCF7D7FA0022B5E700220221204608
:10551000FCF7D0FA002204212046FCF7CBFA002247
:1055200008212046FCF7C6FA002210212046FCF78D
:10553000C1FA0022202100E04EE02046FCF7BAFA32
:1055400000229DE7002202212046FCF7B3FA002248
:1055500004212046FCF7AEFA002208212046FCF781
:10556000A9FA002210212046FCF7A4FA00222021EB
:105570002046FCF79FFA002240212046FCF79AFAC9
:10558000002282E7002202212046FCF793FA002243
:1055900004212046FCF78EFA002208212046FCF761
:1055A00089FA002210212046FCF784FA00222021EB
:1055B0002046FCF77FFA002240212046FCF77AFAC9
:1055C000002280212046FCF775FA00222946204659
:1055D000BDE87040FCF76EBA70BD000000180240D4
:1055E00070B54FF480410C4B0C4DCC1060B10128CC
:1055F00010D101221846FCF75DFA00222146284608
:10560000BDE87040FCF756BA00221846FCF752FA83
:105610000122F3E770BD00000014024000100240B8
:10562000FCF75CFAFEF76CFAFDF78AFCFDF73CFC30
:10563000FDF718FCFDF7C2FDFDF7DEFDFDF7A2FD4D
:10564000FDF75CFDFDF77CFD0F230D4A0D490E486B
:10565000FEF756FD01220D490D48FEF763FD0122BC
:105660000C490D48FEF75EFD0C48FBF746FAFFF7C4
:1056700021FDFFF789FEFDF745FC00F01EF8FEE76F
:10568000085800203C1A002054190020EA57002036
:10569000981900208A00002010190020D817002037
:1056A00001460020842900D0C81C704710B500B9FD
:1056B000012000F095FC002010BD10B500F0B6FCF4
:1056C000002010BD7FB50D4604464169B0F90800C1
:1056D00081B1A16971B1FFF7E3FFD4E905128DE84B
:1056E0000700D4E900102B46226900F0B2FD0390B8
:1056F00004B070BDFFF7D4FF03A9CDE90001208AF3
:105700002B4682B2D4E9001000F076FD012801D0CA
:105710000020EDE70398EBE710B504462DED068B6E
:10572000B0EE428AF0EE618AB0EE419AF0EE609AF5
:10573000B0EE40AA3821FAF732FE84ED00AAC4ED9B
:10574000019A84ED029AC4ED0B8A84ED0D8ABDECBA
:10575000068B10BD70B504462DED028B41F27073BF
:10576000B0F90050B0F90C002A1AD4E906019A42A7
:1057700003DD401E41F1FF3106E041F27073DA4271
:1057800004DA401C41F10001C4E90601FAF79AFF6E
:1057900000EE105A00EE900A9FED0F8AB8EEC00A94
:1057A00000EE880A10EE100AFAF7A2FFC4E9080119
:1057B000FAF788FF00EE100AC0EE080A9FED070A0C
:1057C00020EE800A10EE100AFAF792FFC4E90A01EF
:1057D000A581BDEC028B70BD00F8FF450000B4430D
:1057E0002DE9F041184C0F460546E6682068001D7B
:1057F00000F02EFB38B9206890F82C10012088406A
:10580000216981432161681C07D137B12168BDE856
:10581000F0410E48091D00F05FBB20683544B542D9
:105820004560216805D2A06BBDE8F041091D00F07C
:105830003BBB606B091D00F037FBA06A854200D2BC
:10584000A562BDE8F081000018000020C01B002008
:105850002DE9F041054600F04BFB2E4CA068401CA2
:10586000A06020682C4F10B1606940B32DE0256026
:10587000A068012829D1002606EB860007EB8000EE
:1058800000F004FB761C072EF6D323488C3000F082
:10589000FDFA2148A03000F0F9FA1F48B43000F0BA
:1058A000F5FA1D48C83000F0F1FA1B48DC3000F072
:1058B000EDFA19488C3060631430A06305E020686D
:1058C000E96AC06A884200D82560606A401C60624C
:1058D000E96A0120226988401043206101EB8100C0
:1058E00007EB8000291D00F0F7FA00F021FB60694A
:1058F00000280CD02068E96AC06A884207D20749AC
:105900004FF080500860BFF34F8FBFF36F8FBDE83B
:10591000F081000018000020E41A002004ED00E0EF
:1059200010B5044690F8510058B101280CD0022857
:105930000FD0502080F31188BFF34F8FBFF36F8FCC
:10594000FEE7206B00F008FB2046BDE8104000F0A9
:1059500003BB10BD10484FF47051420706D0C01D64
:105960000D4920F00700411AC1F570510B4A002380
:105970000144C2E900030839183A21F00701116017
:105980004B600B600B1AC0E9001393604FF00040AE
:105990005360506170470000D41B00206C00002051
:1059A000144E154CA6F1C8074FF08058DFF84C9004
:1059B00012E000BF00F09CFAF068C568281D00F0F6
:1059C00047FAA068401EA0606068401E606000F05A
:1059D000AFFA2846FFF7A4FF60680028EAD13868CC
:1059E0000128F9D9C9F80080BFF34F8FBFF36F8F3B
:1059F000F2E70000AC1B00201800002004ED00E0DE
:105A00002DE9F0479A46DDE9098481466FF00303EA
:105A1000206B03EB82021044089E20F007077807F2
:105A200007D0502080F31188BFF34F8FBFF36F8FE3
:105A3000FEE7002561B1002023180A5C83F83420BA
:105A40000A5C12B1401C1028F6D384F8435001E0E0
:105A500084F83450072E00D30626E662C4E91165A7
:105A6000201D00F01EFA04F1180000F01AFA24615B
:105A7000C6F107006462A061E56484F850505246A4
:105A80004946384600F0C0F82060B8F1000F01D058
:105A9000C8F80040BDE8F08730B5114900E0114674
:105AA0000A688242FBD34B685C18844203D1406889
:105AB00018444860084643681C18944209D1084CB1
:105AC000183C2468A24209D052681A4442600A680D
:105AD00012680260814200D0086030BD0460F9E7BE
